:0400000001EF1BF001
:100600000053454E534F523A2020202020202020D6
:10061000005052455353414F3A20202020202020A3
:100620000025302E3166424152202020202020001B
:1006300025302E32665620202020200025303164BF
:1006400020202020200053343A2000696E66006E7E
:10065000616E0053313A0053323A0053333A00008E
:10066000000E0001EB6F56C0ECF057C0EDF058C023
:10067000EEF059C0EFF0EFBF42EF03F040EF03F0B0
:1006800056EF03F0010EEB6FECC001F0EDC002F08D
:10069000EEC003F0EFC004F099EC1AF001C0ECF0EA
:1006A00002C0EDF003C0EEF004C0EFF0000E000158
:1006B000F16F000EF06F7BC0DFF07CC0E0F0EB511B
:1006C000D8B465EF03F067EF03F07BEF03F0EB5175
:1006D000D8A46DEF03F06FEF03F075EF03F0000E99
:1006E000D16F2B0ED06F79EF03F0000ED16F2D0E6E
:1006F000D06FD0C0EBF0ECC001F0EDC002F0EEC066
:1007000003F0EFC004F03CEC15F001040210D8A493
:100710008CEF03F08EEF03F0BDEF03F00001EB511F
:10072000D8B495EF03F097EF03F0A0EF03F0EBC020
:1007300000F1DF07D8A0E007000EF16F010EF06FA7
:10074000000EF025016E010EF121026E4B0E036EBC
:100750007CEC1AF00001FD0EDF27FF0EE02355C0F0
:100760000FF0000E106E010E116EDFC012F0E0C02F
:1007700013F03EEC19F059EF08F0ECC001F0EDC0B9
:1007800002F0EEC003F0EFC004F03CEC15F00150B5
:100790000210D8A4CEEF03F0D0EF03F0EEEF03F099
:1007A0000001EB51D8B4D7EF03F0D9EF03F0E2EF3B
:1007B00003F0EBC000F1DF07D8A0E007000EF16FF7
:1007C000010EF06F000EF025016E010EF121026E98
:1007D0004F0E036E7CEC1AF0AAEF03F0000E00013E
:1007E000F26F000EF36F800EF46F3F0EF56F000E88
:1007F000DA6F000ED96FECC001F0EDC002F0EEC070
:1008000003F0EFC004F0000E056E000E066E000E41
:10081000076E000E086EAEEC17F0D8B012EF04F0C1
:1008200014EF04F0F3EF04F021EF04F0DBC0F2F07A
:10083000DCC0F3F0DDC0F4F0DEC0F5F00001D94B10
:10084000DA2BF2C00FF0F3C010F0F4C011F0F5C0D5
:1008500012F0000E136E000E146E200E156E410E77
:10086000166EBAEC0AF00FC0DBF010C0DCF011C05D
:10087000DDF012C0DEF00001DB51EC5D016EDC51F9
:10088000ED59026EDD51EE59036EDE51EF59046EE3
:1008900087EC19F004BE58EF04F004500310021066
:1008A00009E1020E015CD8A058EF04F05AEF04F001
:1008B00016EF04F0DBC028F0DCC029F0DDC02AF020
:1008C000DEC02BF0ECC02CF0EDC02DF0EEC02EF011
:1008D000EFC02FF0BAEC14F0D8A071EF04F073EF72
:1008E00004F016EF04F00001F251EC5D016EF351DB
:1008F000ED59026EF451EE59036EF551EF59046E45
:1009000087EC19F004BE92EF04F0045003100210BB
:1009100007E1020E015CD8B090EF04F092EF04F012
:10092000DAEF04F0F2C0ECF0F3C0EDF0F4C0EEF05A
:10093000F5C0EFF0F3EF04F0F2C028F0F3C029F0B7
:10094000F4C02AF0F5C02BF0000E2C6E000E2D6EB8
:10095000200E2E6E410E2F6ECFEC0CF028C0F2F060
:1009600029C0F3F02AC0F4F02BC0F5F00001D9073C
:10097000D8A0DA07F251EC5D016EF351ED59026E29
:10098000F451EE59036EF551EF59046E87EC19F0EE
:1009900004BED8EF04F004500310021007E1020E69
:1009A000015CD8B0D6EF04F0D8EF04F0DAEF04F031
:1009B00092EF04F0ECC028F0EDC029F0EEC02AF070
:1009C000EFC02BF0F2C02CF0F3C02DF0F4C02EF0ED
:1009D000F5C02FF0BAEC14F0D8A0F1EF04F0F3EF6B
:1009E00004F09CEF04F05AC0D3F0D3C0D4F07EBE24
:1009F000FCEF04F0FEEF04F004EF05F07DC0CCF056
:100A00007EC0CDF009EF05F0000E0001CD6F060E9F
:100A1000CC6FCCC0D7F0CDC0D8F00001D74BD82BCD
:100A2000660ED419D8A417EF05F019EF05F039EFC9
:100A300005F0DABF20EF05F01EEF05F02CEF05F012
:100A4000000EF26F000EF36F800EF46F3F0EF56F25
:100A5000000EDA6F000ED96F670ED319D8B433EFDA
:100A600005F035EF05F039EF05F0D951D727DA5108
:100A7000D823000EEA6F000EE96FECC0E1F0EDC084
:100A8000E2F0EEC0E3F0EFC0E4F0F2C0DBF0F3C060
:100A9000DCF0F4C0DDF0F5C0DEF0CAEF05F0E1C037
:100AA00028F0E2C029F0E3C02AF0E4C02BF0F2C045
:100AB0002CF0F3C02DF0F4C02EF0F5C02FF0CFECE9
:100AC0000CF028C041F029C042F02AC043F02BC0EE
:100AD00044F0FBEC0FF041C0E5F042C0E6F043C04B
:100AE000E7F044C0E8F0E5C001F0E6C002F0E7C07E
:100AF00003F0E8C004F037EC14F001C0D5F002C0F8
:100B0000D6F0E1C028F0E2C029F0E3C02AF0E4C04A
:100B10002BF0E5C013F0E6C014F0E7C015F0E8C014
:100B200016F0F2C00FF0F3C010F0F4C011F0F5C0F1
:100B300012F0BAEC0AF00FC02CF010C02DF011C06A
:100B40002EF012C02FF0DAEC19F028C0E1F029C025
:100B5000E2F02AC0E3F02BC0E4F0F2C028F0F3C0CA
:100B600029F0F4C02AF0F5C02BF0000E2C6E000E18
:100B70002D6E200E2E6E410E2F6ECFEC0CF028C085
:100B8000F2F029C0F3F02AC0F4F02BC0F5F0000118
:100B9000E94BEA2BD751E95DEA51800A5B6ED851E7
:100BA000800A5B58D8A0D7EF05F0D9EF05F04FEFDA
:100BB00005F0F2C00FF0F3C010F0F4C011F0F5C072
:100BC00012F0000E136E000E146EA00E156E400E85
:100BD000166EBAEC0AF00FC0E5F010C0E6F011C0D6
:100BE000E7F012C0E8F0E1C028F0E2C029F0E3C06D
:100BF0002AF0E4C02BF0E5C02CF0E6C02DF0E7C0F1
:100C00002EF0E8C02FF0BAEC14F0D8B00AEF06F0DE
:100C10000CEF06F017EF06F0000E0001E56F000E76
:100C2000E66F000EE76F000EE86F40EF06F0E1C0E0
:100C300001F0E2C002F0E3C003F0E4C004F0E5C05C
:100C400005F0E6C006F0E7C007F0E8C008F0AEEC3B
:100C500017F0D8A02EEF06F030EF06F040EF06F0C8
:100C60000001D5B136EF06F038EF06F040EF06F0A0
:100C7000000EE56F000EE66F000EE76F000EE86FE6
:100C8000ECC001F0EDC002F0EEC003F0EFC004F0E4
:100C9000E5C005F0E6C006F0E7C007F0E8C008F0E0
:100CA0005AEC08F001C0E1F002C0E2F003C0E3F04A
:100CB00004C0E4F0E1C028F0E2C029F0E3C02AF06B
:100CC000E4C02BF0000E136E000E146E200E156E95
:100CD000410E166EDBC00FF0DCC010F0DDC011F06D
:100CE000DEC012F0BAEC0AF00FC02CF010C02DF0EC
:100CF00011C02EF012C02FF0BAEC14F0D8A083EF80
:100D000006F085EF06F0AEEF06F00001D94BDA2BC6
:100D1000DBC00FF0DCC010F0DDC011F0DEC012F05F
:100D2000000E136E000E146E200E156E410E166E20
:100D3000BAEC0AF00FC0DBF010C0DCF011C0DDF03F
:100D400012C0DEF0660E0001D419D8A4AAEF06F096
:100D5000ACEF06F0AEEF06F0D74BD82BDBC0F2F0CD
:100D6000DCC0F3F0DDC0F4F0DEC0F5F0D9C0CAF0AD
:100D7000DAC0CBF0000E0001D26F000ECF6F000E74
:100D8000CE6F000EEA6F000EE96FACEF07F0E1C026
:100D900028F0E2C029F0E3C02AF0E4C02BF0F2C052
:100DA0002CF0F3C02DF0F4C02EF0F5C02FF0CFECF6
:100DB0000CF028C041F029C042F02AC043F02BC0FB
:100DC00044F0FBEC0FF041C0E5F042C0E6F043C058
:100DD000E7F044C0E8F0E5C001F0E6C002F0E7C08B
:100DE00003F0E8C004F037EC14F002BE03EF07F0A4
:100DF000025007E10A0E015CD8B001EF07F003EFE3
:100E000007F013EF07F0E5C001F0E6C002F0E7C01D
:100E100003F0E8C004F037EC14F001C0D5F002C0D4
:100E2000D6F018EF07F0000E0001D66F090ED56F4F
:100E30000001D251D8A41FEF07F021EF07F049EFCE
:100E400007F0CBBF28EF07F026EF07F049EF07F0D8
:100E5000000EF025D96E010EF121DA6E2E0EDF6E36
:100E6000F04BF12BDF07D8A0E007010ED26F49EF5E
:100E700007F0000EF025D96E010EF121DA6E300E6A
:100E8000DF6EF04BF12BDF07D8A0E007CE07D8A02C
:100E9000CF07CE51CF11D8A450EF07F052EF07F093
:100EA00039EF07F0000EF025D96E010EF121DA6E50
:100EB000D551300FDF6EF04BF12BDF07D8A0E007E4
:100EC000E1C028F0E2C029F0E3C02AF0E4C02BF032
:100ED000E5C013F0E6C014F0E7C015F0E8C016F066
:100EE000F2C00FF0F3C010F0F4C011F0F5C012F032
:100EF000BAEC0AF00FC02CF010C02DF011C02EF08B
:100F000012C02FF0DAEC19F028C0E1F029C0E2F0AD
:100F10002AC0E3F02BC0E4F0F2C028F0F3C029F0BF
:100F2000F4C02AF0F5C02BF0000E2C6E000E2D6ED2
:100F3000200E2E6E410E2F6ECFEC0CF028C0F2F07A
:100F400029C0F3F02AC0F4F02BC0F5F00001CA0765
:100F5000D8A0CB07E94BEA2BD751E95DEA51800ACB
:100F60005B6ED851800A5B58D8B0B9EF07F0BBEF81
:100F700007F0C9EF07F0F1BFC7EF07F0F15109E142
:100F80004B0EF05DD8A0C7EF07F0C9EF07F0C7EF31
:100F900006F0000EEA6F4F0EE96F000EE925D96EDC
:100FA000010EEA21DA6EDF6A000E5B6E010E5C6EE6
:100FB000F0515B5EF1515C5AE9515B24016EEA51DC
:100FC0005C20026E000E036E010E046EF0C005F090
:100FD000F1C006F0B2EC19F00001F051E95DF06FDC
:100FE000F151EA59F16FEB51D8A4F9EF07F0FCEF9A
:100FF00007F0010EFDEF07F0000EE96FEA6B7FA22C
:1010000004EF08F006EF08F034EF08F016EF08F0F0
:10101000F007D8A0F107000EF025D96E010EF121DE
:10102000DA6E300EDF6EDF07D8A0E007DF51E95D32
:10103000EA51800A5B6EE051800A5B58D8B023EF1A
:1010400008F025EF08F034EF08F0F051E95DEA51BF
:10105000800A5B6EF151800A5B58D8A032EF08F02D
:1010600034EF08F008EF08F0EB51D8B43AEF08F08D
:101070003CEF08F047EF08F0F007D8A0F107000EAA
:10108000F025D96E010EF121DA6EEBC0DFFFE951D8
:10109000DF5FEA51E05B55C00FF0000EF025106EE7
:1010A000010EF121116EDFC012F0E0C013F03EEC32
:1010B00019F012000450800B0D6E045004240F6EC2
:1010C00003AE65EF08F067EF08F068EF08F00F80F7
:1010D0000F50D8B46EEF08F070EF08F085EF08F00D
:1010E0000F28D8A476EF08F078EF08F080EF08F02A
:1010F000000E016E000E026E000E036E000E046EF6
:10110000038E000E046E8DEF08F0000E016E000ECF
:10111000026E000E036E000E046E0850800B0E6E01
:101120000D500E18D8B497EF08F099EF08F09AEF29
:1011300008F00D8C085008240E6E07AEA2EF08F0E0
:10114000A4EF08F0A5EF08F00E800E50D8B4ABEF76
:1011500008F0ADEF08F0C2EF08F00E28D8A4B3EF06
:1011600008F0B5EF08F0BDEF08F0000E056E000EB8
:10117000066E000E076E000E086E078E000E086EDB
:10118000CAEF08F0000E056E000E066E000E076E28
:10119000000E086E0F500E5CD8B0D1EF08F0D3EF00
:1011A00008F0FAEF08F00DACD8EF08F0DAEF08F02D
:1011B000DCEF08F0800E0D1A0FC010F00EC00FF01B
:1011C00010C00EF001C010F005C001F010C005F015
:1011D00002C010F006C002F010C006F003C010F00C
:1011E00007C003F010C007F004C010F008C004F0FE
:1011F00010C008F0000E106E0F500EC009F00A6A01
:10120000095E000E0A5A0ABE0FEF09F00A5009E102
:101210001A0E095CD8A00FEF09F011EF09F048EFA2
:1012200009F00150021003100410D8A41AEF09F0BD
:101230001DEF09F0010E1EEF09F0000E106E000EFA
:10124000016E000E026E000E036E000E046E0EC0E4
:101250000FF051EF09F010A030EF09F032EF09F074
:1012600038EF09F0D89010300109106E3AEF09F00C
:10127000D890103201A03FEF09F041EF09F042EFA2
:1012800009F0108E043404320332023201320F2A84
:101290000E500F5CD8A04FEF09F051EF09F02BEF83
:1012A00009F00DBC56EF09F058EF09F098EF09F07E
:1012B0000F50D8A45EEF09F060EF09F06AEF09F073
:1012C000000E016E000E026E000E036E000E046E24
:1012D000B9EF0AF0055001260650022207500322FA
:1012E0000850042204A077EF09F079EF09F025EF08
:1012F0000AF010A07EEF09F080EF09F086EF09F008
:10130000D89010300109106E88EF09F0D890103293
:1013100001A08DEF09F08FEF09F090EF09F0108E2A
:10132000043404320332023201320F2A25EF0AF06C
:101330000550015C06500258075003580450800ABB
:10134000096E0850800A0958D8B0A9EF09F0ABEF30
:1013500009F0D6EF09F00150055C096E02500658FD
:101360000A6E035007580B6E045008580C6EFF0E9F
:101370000924016EFF0E0A20026EFF0E0B20036E81
:10138000FF0E0C20046E800E0D1A106C1050D8A4A5
:10139000CCEF09F0CEEF09F0DEEF09F0010E0126E7
:1013A000000E022203220422DEEF09F00550015E46
:1013B0000650025A0750035A0850045A01500210AE
:1013C00003100410D8A4E7EF09F0E9EF09F01EEFCD
:1013D0000AF01050D8A4EFEF09F0F1EF09F01EEF7A
:1013E0000AF0000E016E000E026E000E036E000E7B
:1013F000046EB9EF0AF0D89001360236033604368F
:1014000010AE05EF0AF007EF0AF008EF0AF00180CE
:1014100010A00DEF0AF00FEF0AF013EF0AF0D880DA
:10142000103615EF0AF0D89010360F50D8B41BEFD5
:101430000AF01DEF0AF01EEF0AF00F0603AE23EFCD
:101440000AF025EF0AF0FBEF09F0000E0E6E10AE69
:101450002CEF0AF02EEF0AF046EF0AF010C009F068
:101460007F0E0916D8B437EF0AF039EF0AF03DEFD6
:101470000AF0010E0E6E46EF0AF001A042EF0AF0EC
:1014800044EF0AF046EF0AF039EF0AF00E50D8B4F4
:101490004CEF0AF04EEF0AF079EF0AF0010E012648
:1014A000000E02220322042204A059EF0AF05BEF8F
:1014B0000AF079EF0AF001C009F002C00AF003C097
:1014C0000BF004C00CF00C340C320B320A3209322F
:1014D00009C001F00AC002F00BC003F00CC004F018
:1014E0000F28D8B476EF0AF078EF0AF079EF0AF017
:1014F0000F2A0F28D8B47FEF0AF081EF0AF089EFA6
:101500000AF00F50D8A487EF0AF089EF0AF09BEF9A
:101510000AF0000E016E000E026E000E036E000E49
:10152000046E0F50D8A497EF0AF099EF0AF09BEFE2
:101530000AF0000E0D6E0FA0A0EF0AF0A2EF0AF065
:10154000A5EF0AF0038EA6EF0AF0039ED8900F30A5
:10155000046E0DAEAEEF0AF0B0EF0AF0B1EF0AF094
:10156000048E01C001F002C002F003C003F004C009
:1015700004F012001250800B1B6E12501224216EC8
:1015800011AEC5EF0AF0C7EF0AF0C8EF0AF02180EC
:101590002150D8B4CEEF0AF0D0EF0AF0E3EF0AF012
:1015A0002128D8A4D6EF0AF0D8EF0AF0E0EF0AF02D
:1015B000000E0F6E000E106E000E116E000E126EF9
:1015C000118EEBEF0AF0000E0F6E000E106E000E83
:1015D000116E000E126E1650800B1B1A1650162438
:1015E000206E15AEF6EF0AF0F8EF0AF0F9EF0AF008
:1015F00020802050D8B4FFEF0AF001EF0BF014EF79
:101600000BF02028D8A407EF0BF009EF0BF011EF37
:101610000BF0000E136E000E146E000E156E000E11
:10162000166E158E1CEF0BF0000E136E000E146E6E
:10163000000E156E000E166E2050D8B422EF0BF07F
:1016400024EF0BF02CEF0BF02150D8A42AEF0BF075
:101650002CEF0BF036EF0BF0000E0F6E000E106E3D
:10166000000E116E000E126ECEEF0CF015500F0230
:10167000F3CF26F0F4CF27F026501C6E1D6A1E6AA9
:101680001F6A2750226E236A246A256A14501002AA
:10169000F3CF26F0F4CF27F026501C26000E1D2293
:1016A0001E221F2227502226000E2322242225221A
:1016B00013501102F3CF26F0F4CF27F026501C264A
:1016C000000E1D221E221F2227502226000E23223A
:1016D000242225221EC01FF01DC01EF01CC01DF0BC
:1016E0001C6A13501002F3CF26F0F4CF27F02650D7
:1016F0001C2627501D22000E1E22000E1F221450F1
:101700000F02F3CF26F0F4CF27F026501C262750E7
:101710001D22000E1E22000E1F221EC01FF01DC023
:101720001EF01CC01DF01C6A13500F02F3CF26F0F0
:10173000F4CF27F026501C2627501D22000E1E2213
:10174000000E1F2215501002F3CF26F0F4CF27F021
:101750002650222627502322000E2422000E252266
:1017600014501102F3CF26F0F4CF27F02650222692
:1017700027502322000E2422000E2522155011028C
:10178000F3CF26F0F4CF27F02650176E2750186EAF
:10179000196A1A6A19C01AF018C019F017C018F09F
:1017A000176A1750222618502322195024221A5043
:1017B00025221CC017F01DC018F01EC019F01FC054
:1017C0001AF0190EE9EF0BF0D8901A3219321832CC
:1017D0001732E82EE4EF0BF0175022261850232280
:1017E000195024221A5025221EC01FF01DC01EF0C1
:1017F0001CC01DF01C6A205021C017F0186A172663
:10180000000E1822820E1724266EFF0E1820276E57
:101810001FEF0CF0D89022362336243625361FAE23
:1018200014EF0CF016EF0CF017EF0CF02280D890AC
:101830001C361D361E361F362606D8A0270624AEB7
:1018400024EF0CF026EF0CF00AEF0CF0000E206EE7
:101850001FAE2DEF0CF02FEF0CF053EF0CF0FF0E3E
:101860001C14176EFF0E1D14186EFF0E1E14196E39
:101870007F0E1F141A6E1750181019101A10D8B4B2
:1018800044EF0CF046EF0CF04AEF0CF0010E206E26
:1018900053EF0CF022A04FEF0CF051EF0CF053EF90
:1018A0000CF046EF0CF02050D8B459EF0CF05BEF81
:1018B0000CF07FEF0CF0010E2226000E23222422D2
:1018C000252225A066EF0CF068EF0CF07FEF0CF0FE
:1018D00022C017F023C018F024C019F025C01AF058
:1018E0001A341A3219321832173217C022F018C0BF
:1018F00023F019C024F01AC025F0264A272A27BE53
:101900008AEF0CF0275008E12628D8A08AEF0CF0C7
:101910008CEF0CF096EF0CF0000E226E000E236E92
:10192000800E246E7F0E256EC4EF0CF027BEA3EF51
:101930000CF0275006E12604D8B0A1EF0CF0A3EF7D
:101940000CF0AFEF0CF0000E226E000E236E000EB6
:10195000246E000E256E000E1B6EC4EF0CF026C028
:1019600021F0FF0E2216FF0E23167F0E2416000E06
:10197000251621A0BEEF0CF0C0EF0CF0C1EF0CF06B
:10198000248ED8902130256E1B50251222C00FF0D6
:1019900023C010F024C011F025C012F012002B500B
:1019A000800B386E2B502B243F6E2AAEDAEF0CF0F2
:1019B000DCEF0CF0DDEF0CF03F803F50D8B4E3EFEC
:1019C0000CF0E5EF0CF0FAEF0CF03F28D8A4EBEFA9
:1019D0000CF0EDEF0CF0F5EF0CF0000E286E000EA1
:1019E000296E000E2A6E000E2B6E2A8E000E2B6EB4
:1019F00002EF0DF0000E286E000E296E000E2A6E0A
:101A0000000E2B6E2F50800B381A2F502F24406E53
:101A10002EAE0DEF0DF00FEF0DF010EF0DF040803A
:101A20004050D8B416EF0DF018EF0DF02DEF0DF07B
:101A30004028D8A41EEF0DF020EF0DF028EF0DF098
:101A4000000E2C6E000E2D6E000E2E6E000E2F6EF0
:101A50002E8E000E2F6E35EF0DF0000E2C6E000E48
:101A60002D6E000E2E6E000E2F6E2C502D102E108F
:101A70002F10D8A43EEF0DF040EF0DF058EF0DF011
:101A8000000E286E000E296E000E2A6E000E2B6EC0
:101A9000800E2A127F0E2B1238502B1228C028F0ED
:101AA00029C029F02AC02AF02BC02BF09BEF0EF0A2
:101AB0003F50D8A45EEF0DF060EF0DF06AEF0DF02F
:101AC000000E286E000E296E000E2A6E000E2B6E80
:101AD0009BEF0EF040503FC030F0316A305E000E98
:101AE000315A7F0E3024396E000E31203A6E28C0F4
:101AF00034F029C035F02AC036F02BC037F0000E84
:101B0000286E000E296E000E2A6E000E2B6E000E3F
:101B10003B6E000E3C6E000E3D6E000E3E6E000EE3
:101B2000406ECBEF0DF04050D8B499EF0DF09BEF25
:101B30000DF0B2EF0DF0D8903436353636363736F4
:101B4000D890283629362A362B363EAEAAEF0DF02D
:101B5000ACEF0DF0ADEF0DF02880D8903B363C3661
:101B60003D363E362C50345C2D5035582E5036586C
:101B70002F503758D8A0BFEF0DF0C1EF0DF0CAEFCE
:101B80000DF03E8C2C50345E2D50355A2E50365A66
:101B90002F50375A402A190E4064D1EF0DF0D3EF81
:101BA0000DF093EF0DF03450351036103710D8B4D7
:101BB000DCEF0DF0DEEF0DF0F6EF0DF03B80F6EF11
:101BC0000DF0D890283629362A362B363EAEEBEF6C
:101BD0000DF0EDEF0DF0EEEF0DF02880D8903B36D4
:101BE0003C363D363E363906D8A03A062AAEFBEFE3
:101BF0000DF0FDEF0DF0E1EF0DF0000E406E3EAE8A
:101C000004EF0EF006EF0EF02AEF0EF0FF0E3B147D
:101C1000306EFF0E3C14316EFF0E3D14326E7F0E9F
:101C20003E14336E3050311032103310D8B41BEFE5
:101C30000EF01DEF0EF021EF0EF0010E406E2AEFB8
:101C40000EF028A026EF0EF028EF0EF02AEF0EF08F
:101C50001DEF0EF04050D8B430EF0EF032EF0EF022
:101C600056EF0EF0010E2826000E29222A222B22E2
:101C70002BA03DEF0EF03FEF0EF056EF0EF028C018
:101C800030F029C031F02AC032F02BC033F03334A9
:101C9000333232323132303230C028F031C029F0A4
:101CA00032C02AF033C02BF0394A3A2A3ABE61EFEB
:101CB0000EF03A5008E13928D8A061EF0EF063EF3A
:101CC0000EF06EEF0EF0000E3A6E3968000E286EC0
:101CD000000E296E000E2A6E000E2B6E3ABE7BEFB0
:101CE0000EF03A5006E13904D8B079EF0EF07BEFF0
:101CF0000EF089EF0EF0000E3A6E000E396E000EF7
:101D0000286E000E296E000E2A6E000E2B6E000E3D
:101D1000386E39C03FF03FA090EF0EF092EF0EF01A
:101D200095EF0EF02A8E96EF0EF02A9ED8903F3057
:101D30002B6E4CEF0DF012005E50D96EDA6ADFCFD9
:101D4000F6FF060EF76E0800F550250AD8A4ABEF93
:101D50000EF0ADEF0EF0E9EF0FF05E50D96EDA6ADB
:101D6000DF2A000E7C6E000E7B6E7BC07FF07D68EC
:101D70007E68000E616ED7EF0EF07F825E50D96EE6
:101D8000DA6ADF2AD7EF0EF0010E616ED7EF0EF0A0
:101D90005E50D96EDA6ADFCFF6FF060EF76E0800E6
:101DA000F550300AD8B4BDEF0EF0C4EF0EF061501C
:101DB000D8B4DDEF0EF0DFEF0EF0C8EF0EF05EC02E
:101DC00007F05FC008F003EC18F007C07BF008C014
:101DD0007CF07CBEF0EF0EF0EEEF0EF0F5EF0EF0C3
:101DE0007F807B6C7C1ED8B07C2A5E50D96EDA6A0C
:101DF000DFCFF6FF060EF76E0800F5502E0AD8A4C6
:101E000004EF0FF006EF0FF014EF0FF05E50D96EF5
:101E1000DA6ADF2A5EC007F05FC008F003EC18F052
:101E200007C07DF008C07EF05E50D96EDA6ADF50E0
:101E3000676E67C0F6FF060EF76E0800F550640A7D
:101E4000D8B425EF0FF027EF0FF035EF0FF067C094
:101E5000F6FF060EF76E0800F550690AD8A433EFB6
:101E60000FF035EF0FF050EF0FF05F50D96EDA6AD8
:101E7000020EDF26DF5CD96EDA6ADECF62F0DECFDB
:101E800063F05E50D96EDA6A6728DF6E5DC017F0C6
:101E900062C018F063C019F0D9EC12F0FAEF0FF03D
:101EA0005E50D96EDA6ADF50676E67C0F6FF060EC5
:101EB000F76E0800F5CF66F069EF0FF0672A78EF4C
:101EC0000FF06C0E666E78EF0FF0000E666E78EF16
:101ED0000FF066504C0AD8B45EEF0FF02A0AD8B45F
:101EE00061EF0FF00A0AD8B45EEF0FF065EF0FF064
:101EF00067C0F6FF060EF76E0800F550660AD8A414
:101F000084EF0FF086EF0FF0E3EF0FF0B0EF0FF07C
:101F10005F50D96EDA6ADFCF60F0040EDF266050C2
:101F2000D96EDA6ADECF62F0DECF63F0DECF64F026
:101F3000DECF65F0BBEF0FF05F50D96EDA6ADFCF0E
:101F400060F0040EDF266050D96EDA6ADECF62F0F0
:101F5000DECF63F0DECF64F0DECF65F0BBEF0FF0D5
:101F600066504C0AD8B49CEF0FF0200AD8B488EF22
:101F70000FF0BBEF0FF05E50D96EDA6A6728DF6EA4
:101F8000D7EF0FF05DC055F062C056F063C057F058
:101F900064C058F065C059F067C0F6FF060EF76ED2
:101FA0000800F5CF5AF030EC03F0FAEF0FF067C0FD
:101FB000F6FF060EF76E0800F550660AD8B4C2EFB9
:101FC0000FF0E3EF0FF05E50D96EDA6ADF2AFAEF16
:101FD0000FF05E50D96EDA6ADFCFF6FF060EF76EAD
:101FE0000800F550016E026A5DC003F0F9EC16F0CE
:101FF000E3EF0FF0120080C051F081C052F082C0B8
:1020000053F083C054F041C051F042C052F043C07D
:1020100053F044C054F0810E456EFF0E466E51C021
:1020200047F052C048F053C049F054C04AF0180E6F
:102030001FEF10F0D8904A32493248324732E82E2A
:102040001AEF10F0475045244F6E000E4620506E98
:1020500050BE34EF10F0505009E1170E4F5CD8A07D
:1020600034EF10F036EF10F040EF10F041C041F0C7
:1020700042C042F043C043F044C044F003EF11F0CB
:1020800050BE45EF10F047EF10F0B7EF10F04FC023
:1020900045F0FF0E466EFF0E476E7F0E486E000E37
:1020A000496E456656EF10F05EEF10F04934493244
:1020B000483247324632452E51EF10F046C04BF0C1
:1020C00047C04CF048C04DF049C04EF04B50511441
:1020D000456E4C505214466E4D505314476E4E5040
:1020E0005414486E4550461047104810D8A47BEF52
:1020F00010F07DEF10F07FEF10F036EF10F051C0D0
:1021000045F052C046F053C047F054C048F0200E8E
:102110008FEF10F0D8904832473246324532E82EE1
:102120008AEF10F04550461047104810D8B49BEF86
:1021300010F09DEF10F0A5EF10F04B5051264C50D1
:1021400052224D5053224E5054224B1C456E4C1C73
:10215000466E4D1C476E4E1C486E455051164650FB
:1021600052164750531648505416FBEF10F051C00A
:1021700045F052C046F053C047F054C048F0200E1E
:10218000C7EF10F0D8904832473246324532E82E39
:10219000C2EF10F04550461047104810D8A4D3EFB6
:1021A00010F0D5EF10F0DFEF10F0000E516E000EC2
:1021B000526E000E536E000E546EFBEF10F0D8906E
:1021C0005134456E5234466E5334476E5434486E23
:1021D0004550461047104810D8B4F1EF10F0F3EF17
:1021E00010F0FBEF10F0000E516E000E526E800EDC
:1021F000536EBF0E546E51C041F052C042F053C0F6
:1022000043F054C044F01200000E286E000E296EF8
:10221000820E2A6E410E2B6E77C02CF078C02DF006
:1022200079C02EF07AC02FF0BAEC14F0D8A01BEFD2
:1022300011F01DEF11F030EF11F0000E0001976F5B
:10224000010E966F000E956F000E946F000E936F47
:10225000000E926F000E916F000E906FE6EF11F07E
:10226000000E286E000E296E820E2A6E410E2B6E15
:1022700077C02CF078C02DF079C02EF07AC02FF006
:10228000BAEC14F0D8B047EF11F049EF11F075EF48
:1022900011F0000E286E000E296E020E2A6E420EFC
:1022A0002B6E77C02CF078C02DF079C02EF07AC05C
:1022B0002FF0BAEC14F0D8A060EF11F062EF11F03B
:1022C00075EF11F0000E0001976F010E966F000E72
:1022D000956F010E946F000E936F000E926F000EBB
:1022E000916F000E906FE6EF11F0000E286E000E59
:1022F000296E020E2A6E420E2B6E77C02CF078C02B
:102300002DF079C02EF07AC02FF0BAEC14F0D8B0CE
:102310008CEF11F08EEF11F0BAEF11F0000E286E75
:10232000000E296E430E2A6E420E2B6E77C02CF0E3
:1023300078C02DF079C02EF07AC02FF0BAEC14F0EE
:10234000D8A0A5EF11F0A7EF11F0BAEF11F0000E31
:102350000001976F010E966F000E956F010E946F3E
:10236000000E936F010E926F000E916F000E906F32
:10237000E6EF11F0000E286E000E296E430E2A6E55
:10238000420E2B6E77C02CF078C02DF079C02EF065
:102390007AC02FF0BAEC14F0D8B0D1EF11F0D3EF2F
:1023A00011F0E6EF11F0000E0001976F010E966F2D
:1023B000000E956F010E946F000E936F010E926FD9
:1023C000000E916F010E906FE6EF11F0000196B1D3
:1023D00002D0829001D08280000194B102D082921A
:1023E00001D08282000192B102D0829401D0828415
:1023F000000190B102D0829601D082861200096E4F
:102400000950D8B406EF12F008EF12F02AEF12F0DC
:1024100004BE0FEF12F00DEF12F02AEF12F001C020
:1024200005F002C006F003C007F004C008F0051E66
:10243000061E071E081E052A000E06220722082275
:1024400005C00BF006C00CF007C00DF008C00EF080
:1024500032EF12F001C00BF002C00CF003C00DF01F
:1024600004C00EF00150021003100410D8A43BEF7A
:1024700012F03DEF12F047EF12F0000E016E000E69
:10248000026E000E036E000E046ED8EF12F0960E70
:102490000A6E51EF12F00A2AD8900E320D320C3229
:1024A0000B32000E0B14056E000E0C14066E000E9F
:1024B0000D14076EFE0E0E14086E05500610071060
:1024C0000810D8A466EF12F068EF12F04BEF12F08C
:1024D00076EF12F00A2A010E0B26000E0C220D22B6
:1024E0000E22D8900E320D320C320B32000E0B142D
:1024F000056E000E0C14066E000E0D14076EFF0E16
:102500000E14086E0550061007100810D8A48BEFA3
:1025100012F08DEF12F06AEF12F095EF12F00A064A
:10252000D8900B360C360D360E360DBE9AEF12F0E3
:102530009CEF12F0A4EF12F0020E0A60A2EF12F06C
:10254000A4EF12F08FEF12F00AB0A9EF12F0ABEF88
:1025500012F0ACEF12F00D9ED8900A320AC005F0CE
:10256000066A076A086A05C008F0076A066A056A0B
:1025700005500B1206500C1207500D1208500E1287
:102580000950D8B4C6EF12F0C8EF12F0D0EF12F035
:1025900004BECFEF12F0CDEF12F0D0EF12F00E8E9E
:1025A0000BC001F00CC002F00DC003F00EC004F02F
:1025B000120019BEDEEF12F0E1EF12F0010EE2EFB1
:1025C00012F0000E206E7EBEE8EF12F0EAEF12F07D
:1025D000EBEF12F07F927EBEF2EF12F0F0EF12F00E
:1025E000F8EF12F0000E1D6E010E1C6EFCEF12F0E3
:1025F0007DC01CF07EC01DF07BC01EF07CC01FF0B3
:102600002050D8B406EF13F008EF13F01FEF13F0CB
:102610001E06D8A01F062050D8A411EF13F013EF08
:1026200013F019EF13F0000E1B6E2B0E1A6E1DEF38
:1026300013F0000E1B6E2D0E1A6E1AC020F0000E45
:10264000226E4F0E216E000E01014F6F58EF13F0F6
:102650002106D8A02206000E2124D96E010E2220C8
:10266000DA6E18C001F019C002F0000E046E0A0EF6
:10267000036E56EC17F001C007F002C008F0B5EC8D
:102680001AF00750300FDF6E1C06D8A01D061E067C
:10269000D8A01F0618C001F019C002F0000E046E89
:1026A0000A0E036E97EC16F001C018F002C019F084
:1026B00022BE63EF13F0225008E12104D8A063EF9B
:1026C00013F065EF13F08FEF13F018501910D8A422
:1026D0006CEF13F06EEF13F028EF13F01DBE7BEFDD
:1026E00013F01D5006E11C04D8B079EF13F07BEF16
:1026F00013F028EF13F01FBE86EF13F01F5008E110
:102700001E04D8A086EF13F088EF13F08FEF13F0BC
:102710007FB28DEF13F08FEF13F028EF13F02050FE
:10272000D8B495EF13F097EF13F0A2EF13F0210652
:10273000D8A02206000E2124D96E010E2220DA6EC6
:1027400020C0DFFF17C00FF0000E2124106E010E15
:102750002220116E1EC012F01FC013F03EEC19F0C3
:102760001200C00E0001F96FFA6B3C0EFB6F96C0B1
:10277000FCF097C0FDF0FDEC19F0B80E0001F96F08
:10278000FA6B3C0EFB6F94C0FCF095C0FDF0FDECC5
:1027900019F0B00E0001F96FFA6B3C0EFB6F92C09E
:1027A000FCF093C0FDF0FDEC19F0A80E0001F96FEC
:1027B000FA6B3C0EFB6F90C0FCF091C0FDF0FDEC9D
:1027C00019F0E9EC1AF0340E766EF20EE82EFED710
:1027D000762EFCD7010E076E530E086E0850D8A453
:1027E000060E096E010E56EC18F0040E076EC00EB0
:1027F000086E096A010E56EC18F0080E076E570EA7
:10280000086E0850D8A4060E096E010E56EC18F09A
:102810000B0E076EB80E086E096A010E56EC18F022
:10282000010E076E5B0E086E0850D8A4060E096EE6
:10283000020E56EC18F0040E076EB00E086E096A10
:10284000020E56EC18F0080E076E460E086E085081
:10285000D8A4060E096E020E56EC18F00B0E076E89
:10286000A80E086E096A020E56EC18F01200033426
:1028700004340A6E0A50D8A440EF14F042EF14F06A
:102880004CEF14F0000E016E000E026E000E036E8F
:10289000000E046EB9EF14F001C005F002C006F09E
:1028A00003C007F004C008F0200E5CEF14F0D890CD
:1028B0000832073206320532E82E57EF14F0055081
:1028C000096E038EFF0E0116FF0E0216FF0E031691
:1028D000000E0416960E0A5E0ABE73EF14F071EF36
:1028E00014F089EF14F00A50800A970FD8B07BEFEC
:1028F00014F07DEF14F07FEF14F042EF14F0D89055
:1029000004320332023201320A3E7FEF14F0A1EFAB
:1029100014F01F0E0A648FEF14F091EF14F099EF8A
:1029200014F042EF14F0D890013602360336043624
:102930000A060A50D8A49FEF14F0A1EF14F093EF09
:1029400014F00950D8B4A7EF14F0A9EF14F0B1EFC8
:1029500014F0041E031E021E016C000E022203224C
:10296000042201C001F002C002F003C003F004C061
:1029700004F01200000E2814306E000E2914316E7F
:10298000800E2A14326E7F0E2B14336E30503110AD
:1029900032103310D8A4CFEF14F0D1EF14F0D9EFE8
:1029A00014F0000E286E000E296E000E2A6E000E26
:1029B0002B6E000E2C14306E000E2D14316E800E16
:1029C0002E14326E7F0E2F14336E305031103210B1
:1029D0003310D8A4EEEF14F0F0EF14F0F8EF14F089
:1029E000000E2C6E000E2D6E000E2E6E000E2F6E41
:1029F0002BAEFDEF14F0FFEF14F008EF15F0286C8C
:102A0000291ED8B0292A2A1ED8B02A2A800E2B5671
:102A10002FAE0DEF15F00FEF15F018EF15F02C6C31
:102A20002D1ED8B02D2A2E1ED8B02E2A800E2F563D
:102A3000000E281A000E291A000E2A1A800E2B1AD0
:102A4000000E2C1A000E2D1A000E2E1A800E2F1AB0
:102A50002C50285C2D5029582E502A582F502B5876
:102A6000D8B035EF15F037EF15F03AEF15F0D890F4
:102A70003BEF15F0D880120084C00BF085C00CF03D
:102A800086C00DF087C00EF001C00BF002C00CF044
:102A900003C00DF004C00EF00BC005F00CC006F032
:102AA0000DC007F00EC008F0180E5CEF15F0D890BE
:102AB0000832073206320532E82E57EF15F005507E
:102AC000096E0A6A09500A10D8A469EF15F06BEF75
:102AD00015F08BEF15F0D8900B34056E0C34066EA4
:102AE0000D34076E0E34086E0550061007100810DE
:102AF000D8A47DEF15F07FEF15F085EF15F0000EEF
:102B0000026E020E016EBAEF15F0000E026E030E99
:102B1000016EBAEF15F009280A10D8A492EF15F04B
:102B200094EF15F0B6EF15F00BC005F00CC006F0F1
:102B30000DC007F00EC008F0090ED8900536063615
:102B400007360836E82E9DEF15F0055006100710E1
:102B50000810D8B4AEEF15F0B1EF15F0010EB2EFDA
:102B600015F0000E016E026ABAEF15F0000E026E4B
:102B7000040E016E1200046E100E016E04502BEC58
:102B80001BF0036E033A83500318EF0B0318836E98
:102B9000200E016E04502BEC1BF0036E033A03462B
:102BA00083500318DF0B0318836E400E016E045030
:102BB0002BEC1BF0036E033A0346034683500318C5
:102BC000BF0B0318836E800E016E04502BEC1BF0BC
:102BD000036E03320332835003187F0B0318836E96
:102BE00084848494420EE82EFED700D0010E016E3C
:102BF00004502BEC1BF0036E033A83500318EF0BC9
:102C00000318836E020E016E04502BEC1BF0036E52
:102C1000033A034683500318DF0B0318836E040E38
:102C2000016E04502BEC1BF0036E033A034603467F
:102C300083500318BF0B0318836E080E016E0450F7
:102C40002BEC1BF0036E03320332835003187F0B0F
:102C50000318836E848484941200C8C001F0C9C034
:102C600002F0036A046A000EFFEC11F001C00FF0DD
:102C700002C010F003C011F004C012F00A0E136E6F
:102C8000280E146EA00E156E3B0E166EBAEC0AF0EE
:102C90000FC08CF010C08DF011C08EF012C08FF0FC
:102CA0008CC028F08DC029F08EC02AF08FC02BF088
:102CB000D90E2C6E890E2D6E9D0E2E6E3D0E2F6E32
:102CC000CFEC0CF028C077F029C078F02AC079F05A
:102CD0002BC07AF0000E136E000E146EC80E156E27
:102CE000420E166E77C00FF078C010F079C011F068
:102CF0007AC012F0BAEC0AF00FC028F010C029F028
:102D000011C02AF012C02BF0000E2C6E000E2D6E9A
:102D1000820E2E6E420E2F6ECFEC0CF028C088F083
:102D200029C089F02AC08AF02BC08BF01200000E57
:102D3000066E04BEA0EF16F09EEF16F0A6EF16F09A
:102D4000036C041ED8B0042A010E066E02BEADEF5D
:102D500016F0ABEF16F0B3EF16F0016C021ED8B010
:102D6000022A010E061A000E086E000E076E0350AE
:102D70000410D8B4BEEF16F0C0EF16F0E8EF16F06E
:102D8000010E056EC8EF16F0D89003360436052AFA
:102D900004AECDEF16F0CFEF16F0C4EF16F0D890DA
:102DA000073608360350015C04500258D8A0DBEF08
:102DB00016F0DDEF16F0E2EF16F00350015E04505E
:102DC000025A0780D89004320332052ECFEF16F056
:102DD0000650D8B4EEEF16F0F0EF16F0F4EF16F060
:102DE000076C081ED8B0082A07C001F008C002F01E
:102DF00012000350D8B4FFEF16F001EF17F009EFFF
:102E000017F00350D8A407EF17F009EF17F00EEFF3
:102E100017F001505DEC1BF055EF17F00350D96E21
:102E2000DA6A0A0ED926DE50DE10D8B41AEF17F08F
:102E30001CEF17F035EF17F00350D96EDA6A0A0E5F
:102E4000D9260350E16EE26A030EE126DE50E65C0D
:102E5000E650800A086EDE50800A0858D8B033EF7A
:102E600017F035EF17F055EF17F00350D96EDA6A07
:102E7000030ED926DECF04F0DDCF05F00350D96E66
:102E8000DA6ADECF06F0DDCF07F004500624D96EF3
:102E900005500720DA6E01C0DFFF0350D96EDA6AF1
:102EA000030ED926DE2A000EDD221200000E066E69
:102EB00002BE5FEF17F05DEF17F065EF17F0016CE2
:102EC000021ED8B0022A010E066E04BE6CEF17F087
:102ED0006AEF17F070EF17F0036C041ED8B0042AE5
:102EE00003500410D8B477EF17F079EF17F09DEF87
:102EF00017F0010E056E81EF17F0D89003360436F7
:102F0000052A04AE86EF17F088EF17F07DEF17F073
:102F10000350015C04500258D8A091EF17F093EFD2
:102F200017F097EF17F00350015E0450025AD89043
:102F300004320332052E88EF17F00650D8B4A3EF01
:102F400017F0A5EF17F0A9EF17F0016C021ED8B02B
:102F5000022A01C001F002C002F01200000E0114AA
:102F6000096E000E02140A6E800E03140B6E7F0EA3
:102F700004140C6E09500A100B100C10D8A4C3EFE7
:102F800017F0C5EF17F0CDEF17F0000E016E000E31
:102F9000026E000E036E000E046E000E0514096E24
:102FA000000E06140A6E800E07140B6E7F0E0814B6
:102FB0000C6E09500A100B100C10D8A4E2EF17F099
:102FC000E4EF17F0ECEF17F0000E056E000E066E42
:102FD000000E076E000E086E055001180FE1065036
:102FE00002180CE10750031809E108500418D8B47E
:102FF000FCEF17F0FEEF17F001EF18F0D89002EF9A
:1030000018F0D8801200000E0B6E000E0A6E0750EA
:10301000D96EDA6ADFCFF6FF060EF76E0800F550BC
:103020002A0AD8A416EF18F018EF18F03EEF18F09F
:103030000750D96EDA6ADF2A0850D96EDA6A020EB2
:10304000DF26DF5CD96EDA6ADECF0AF0DECF0BF066
:1030500051EF18F00AC001F00BC002F0000E046E30
:103060000A0E036E18EC1BF0095001240A6E000EC4
:1030700002200B6E0750D96EDA6ADF2A0750D96E2C
:10308000DA6ADFCFF6FF060EF76E0800F550D00FB4
:10309000096E090E09644FEF18F051EF18F02AEF8E
:1030A00018F00AC007F00BC008F012000B6E0B04FA
:1030B000D8A45DEF18F05FEF18F064EF18F0075038
:1030C0007F0F0A6E70EF18F0020E0B18D8A46BEF8A
:1030D00018F06DEF18F070EF18F00750BF0F0A6E80
:1030E0000AC005F0000E3BEC1BF08DEF18F008C095
:1030F000F6FF09C0F7FFF86A050EF76403D0080071
:10310000F55005D0F6CFE1FFF7CFE2FFE750056EAF
:10311000010E3BEC1BF0084A092A08C0F6FF09C063
:10312000F7FFF86A050EF76403D00800F55005D0E4
:10313000F6CFE1FFF7CFE2FFE7500009D8A4A3EFF5
:1031400018F0A5EF18F077EF18F01200000E956E4A
:10315000969496929690000E836E849084928494B6
:10316000270E056EF50EE82EFED7052EFCD70000C3
:10317000000E066E300EBBEC15F00D0E056EFC0E4B
:10318000E82EFED7052EFCD7062A020E0664CBEFEA
:1031900018F0CDEF18F0BAEF18F0020EBBEC15F0F6
:1031A0001A0EE82EFED700D0280EBBEC15F01A0E32
:1031B000E82EFED700D0010EBBEC15F0060E056E12
:1031C000300EE82EFED7052EFCD700D00C0EBBEC3F
:1031D00015F01A0EE82EFED700D0060EBBEC15F047
:1031E0001A0EE82EFED700D01200500E0001F96F23
:1031F000010EFA6F210EFB6F77C0FCF078C0FDF076
:1032000079C0FEF07AC0FFF0FDEC19F0980E0001D5
:10321000F96FFA6B300EFB6F8CC0FCF08DC0FDF0C7
:103220008EC0FEF08FC0FFF0FDEC19F0010E076EAE
:10323000010E086E0850D8A4060E096E010E56EC59
:1032400018F0090E076E980E086E096A010E56EC0A
:1032500018F0010E076E110E086E0850D8A4060E65
:10326000096E020E56EC18F00A0E076E500E086E2C
:10327000010E096E020E56EC18F012007FA043EF0B
:1032800019F045EF19F04DEF19F010C009F011C019
:103290000AF00FC00BF03DEC1AF013BE54EF19F01A
:1032A00052EF19F058EF19F0000E136E000E126E67
:1032B000000E166E000E156E68EF19F0000E026E0D
:1032C000200E016E0FC003F0F9EC16F0154A162A15
:1032D0001250155C1650800A146E1350800A145850
:1032E000D8A075EF19F077EF19F05EEF19F07FB005
:1032F0007CEF19F07EEF19F086EF19F010C009F09D
:1033000011C00AF00FC00BF03DEC1AF0120004BE21
:103310008CEF19F08EEF19F098EF19F001C001F061
:1033200002C002F003C003F004C004F0B1EF19F0D2
:1033300001C005F002C006F003C007F004C008F0A9
:10334000051E061E071E081E052A000E062207225D
:10335000082205C001F006C002F007C003F008C053
:1033600004F0120003C00AF004C00BF001C008F022
:1033700002C009F0CCEF19F00AC0D9FF0BC0DAFF88
:10338000DF50076E0A4A0B2A08C0D9FF09C0DAFFCE
:1033900007C0DFFF084A092A0506D8A00606052847
:1033A00006E10628D8A4D7EF19F0D9EF19F0BCEF41
:1033B00019F01200000E2C1A000E2D1A000E2E1AF3
:1033C000800E2F1A28C001F029C002F02AC003F095
:1033D0002BC004F02CC005F02DC006F02EC007F065
:1033E0002FC008F05AEC08F001C028F002C029F004
:1033F00003C02AF004C02BF01200FC0E696EF9C065
:103400006AF0FAC06BF0000E6E6E000E6D6E000E6C
:10341000756E000E746E6A0E0001F66FFBC0F7F059
:10342000690EF86F1DEC1AF06D500001F925D96E88
:103430006E50FA21DA6EDF6A1200F7C068F029EFE9
:103440001AF0F6C05DF0680E5E6EF8C05FF09CEC9E
:103450000EF068C0F6FF060EF76E0800F550000982
:10346000D8A435EF1AF037EF1AF021EF1AF0000E5A
:103470000001F76F000EF66F1200000E0E6E000EC8
:103480000D6E4CEF1AF00CC001F0026A0BC003F095
:10349000F9EC16F00D4A0E2A0D500924D96E0E5083
:1034A0000A20DA6EDF500C6E0C50D8A45AEF1AF0D6
:1034B0005CEF1AF043EF1AF0120058EC1BF04AECE4
:1034C0001BF051EC1BF0A6EC18F0CFEC1AF02DEC31
:1034D00016F004EC11F081B070EF1AF072EF1AF0F0
:1034E00076EF1AF0F5EC18F065EF1AF0B1EC13F086
:1034F00065EF1AF000EF00F001C005F002C006F021
:10350000032A0304046E04C0F6FF060EF76E05C01E
:10351000D9FF06C0DAFF054A062A0800F5CFDFFF0B
:10352000DF50D8A496EF1AF098EF1AF080EF1AF057
:1035300012000150021003100410D8B4A2EF1AF0C8
:10354000A4EF1AF0ACEF1AF0000E011A000E021AE6
:10355000000E031A800E041A01C001F002C002F02E
:1035600003C003F004C004F0120008BEBAEF1AF062
:10357000BCEF1AF0C2EF1AF007C007F008C008F05D
:10358000CEEF1AF007C009F008C00AF0091E0A1EA3
:10359000094A0A2A09C007F00AC008F01200820E80
:1035A000016EDE0EE82EFED7012EFCD7C282C2B21B
:1035B000DCEF1AF0DEEF1AF0D7EF1AF0C4CFC8F044
:1035C0000001C96BC851016EC350C86F01C0C9F07A
:1035D0001200010EBBEC15F0060E056E300EE82E43
:1035E000FED7052EFCD700D00C0EBBEC15F01A0E42
:1035F000E82EFED700D0000E836E849084928494CF
:10360000120001EE00F0600EEE6AE806FDE100EE49
:1036100080F04A0EEE6AE806FDE100EE77F0090E52
:10362000EE6AE806FDE1000EF86E00015DEF1AF0AB
:1036300001500302F3CF05F0F4CF06F0015004026D
:10364000F350062602500302F350062605C001F08F
:1036500006C002F01200026E025001140009D8B434
:1036600034EF1BF036EF1BF039EF1BF0010E3AEF91
:103670001BF0000E1200066E06B002D0849001D03E
:103680008480420EE82EFED700D084940550BBEC17
:1036900015F01200010E936E000E946E000E826EF5
:1036A0001200010EC26E0E0EC16E800EC06E1200B0
:0C36B000000ED36E000E9B6E1200120084
:020000040030CA
:0E000000FF02191EFF8181FF0FC00FE00F40AD
:00000001FF
