:040000006EEF1CF093
:1006000000204155544F4D4143414F20494E442015
:100610000025302E32662056202020202020200069
:10062000253031642044494720202020202000200C
:100630002041554C41204D4943524F202000566FD8
:100640006C746167653A20202000412F443A2020D5
:0B0650002000696E66006E616E000005
:10065C00000E5E6E36C05FF037C060F038C061F0DF
:10066C0039C062F062BE3FEF03F03DEF03F053EF91
:10067C0003F0010E5E6E5FC001F060C002F061C05D
:10068C0003F062C004F0FBEC1BF001C05FF002C091
:10069C0060F003C061F004C062F0000E646E000EE6
:1006AC00636E8CC04EF08DC04FF05E50D8B461EFCD
:1006BC0003F063EF03F077EF03F05E50D8A469EF1B
:1006CC0003F06BEF03F071EF03F0000E446E2B0E92
:1006DC00436E75EF03F0000E446E2D0E436E43C057
:1006EC005EF05FC001F060C002F061C003F062C058
:1006FC0004F087EC17F001040210D8A488EF03F083
:10070C008AEF03F0BBEF03F05E50D8B490EF03F028
:10071C0092EF03F09BEF03F05EC000F14E06D8A001
:10072C004F06000E646E010E636E000E6324016EA4
:10073C00010E6420026E520E036E060E046EBBECAC
:10074C001BF0FD0E4E26FF0E4F2234C011F035C0AB
:10075C0012F0000E136E010E146E4EC015F04FC049
:10076C0016F032EC19F04BEF08F05FC001F060C0EE
:10077C0002F061C003F062C004F087EC17F0015086
:10078C000210D8A4CCEF03F0CEEF03F0EDEF03F0A2
:10079C005E50D8B4D4EF03F0D6EF03F0DFEF03F0E4
:1007AC005EC000F14E06D8A04F06000E646E010E1E
:1007BC00636E000E6324016E010E6420026E560EF1
:1007CC00036E060E046EBBEC1BF0A7EF03F0000EDD
:1007DC00656E000E666E800E676E3F0E686E000EC4
:1007EC004D6E000E4C6E5FC001F060C002F061C037
:1007FC0003F062C004F0000E056E000E066E000ED3
:10080C00076E000E086EDDEC18F0D8B010EF04F097
:10081C0012EF04F0EDEF04F01EEF04F050C065F0A1
:10082C0051C066F052C067F053C068F04C4A4D2A74
:10083C0065C00FF066C010F067C011F068C012F010
:10084C00000E136E000E146E200E156E410E166EF9
:10085C0047EC0DF00FC050F010C051F011C052F029
:10086C0012C053F050505F5C016E51506058026ED4
:10087C0052506158036E53506258046EA7EC1AF034
:10088C0004BE54EF04F004500310021009E1020EF0
:10089C00015CD8A054EF04F056EF04F014EF04F010
:1008AC0050C028F051C029F052C02AF053C02BF090
:1008BC005FC02CF060C02DF061C02EF062C02FF034
:1008CC0005EC17F0D8A06DEF04F06FEF04F014EF07
:1008DC0004F065505F5C016E66506058026E6750A4
:1008EC006158036E68506258046EA7EC1AF004BE8F
:1008FC008DEF04F004500310021007E1020E015CAE
:10090C00D8B08BEF04F08DEF04F0D4EF04F065C099
:10091C005FF066C060F067C061F068C062F0EDEF38
:10092C0004F065C001F066C002F067C003F068C057
:10093C0004F0000E056E000E066E200E076E410EC2
:10094C00086E5CEC0FF001C065F002C066F003C0ED
:10095C0067F004C068F04C06D8A04D0665505F5C8B
:10096C00016E66506058026E67506158036E685095
:10097C006258046EA7EC1AF004BED2EF04F00450D7
:10098C000310021007E1020E015CD8B0D0EF04F0A6
:10099C00D2EF04F0D4EF04F08DEF04F05FC028F038
:1009AC0060C029F061C02AF062C02BF065C02CF049
:1009BC0066C02DF067C02EF068C02FF005EC17F064
:1009CC00D8A0EBEF04F0EDEF04F097EF04F03AC091
:1009DC0046F046C047F000018FBFF7EF04F0F9EF87
:1009EC0004F0FFEF04F08EC03FF08FC040F003EF37
:1009FC0005F0000E406E060E3F6E3FC04AF040C040
:100A0C004BF04A4A4B2A660E4718D8A410EF05F053
:100A1C0012EF05F032EF05F04DBE19EF05F017EFB0
:100A2C0005F025EF05F0000E656E000E666E800E6B
:100A3C00676E3F0E686E000E4D6E000E4C6E670EAC
:100A4C004618D8B42CEF05F02EEF05F032EF05F078
:100A5C004C504A264D504B22000E5D6E000E5C6EC3
:100A6C005FC054F060C055F061C056F062C057F0E2
:100A7C0065C050F066C051F067C052F068C053F0CA
:100A8C00C2EF05F054C001F055C002F056C003F09F
:100A9C0057C004F065C005F066C006F067C007F0EB
:100AAC0068C008F05CEC0FF001C01AF002C01BF03B
:100ABC0003C01CF004C01DF084EC12F01AC058F0F6
:100ACC001BC059F01CC05AF01DC05BF058C001F09F
:100ADC0059C002F05AC003F05BC004F082EC16F06F
:100AEC0001C048F002C049F054C028F055C029F0AC
:100AFC0056C02AF057C02BF058C013F059C014F050
:100B0C005AC015F05BC016F065C00FF066C010F04F
:100B1C0067C011F068C012F047EC0DF00FC02CF05C
:100B2C0010C02DF011C02EF012C02FF053EC1BF0A2
:100B3C0028C054F029C055F02AC056F02BC057F0ED
:100B4C0065C001F066C002F067C003F068C004F035
:100B5C00000E056E000E066E200E076E410E086E1E
:100B6C005CEC0FF001C065F002C066F003C067F0EA
:100B7C0004C068F05C4A5D2A4A505C5C5D50800A97
:100B8C003B6E4B50800A3B58D8A0CFEF05F0D1EF0D
:100B9C0005F048EF05F065C00FF066C010F067C0B7
:100BAC0011F068C012F0000E136E000E146EA00E41
:100BBC00156E400E166E47EC0DF00FC058F010C0BD
:100BCC0059F011C05AF012C05BF054C028F055C057
:100BDC0029F056C02AF057C02BF058C02CF059C041
:100BEC002DF05AC02EF05BC02FF005EC17F0D8B0EA
:100BFC0002EF06F004EF06F00EEF06F0000E586E52
:100C0C00000E596E000E5A6E000E5B6E36EF06F03B
:100C1C0054C001F055C002F056C003F057C004F0A8
:100C2C0058C005F059C006F05AC007F05BC008F078
:100C3C00DDEC18F0D8A025EF06F027EF06F036EF24
:100C4C0006F048B02CEF06F02EEF06F036EF06F06B
:100C5C00000E586E000E596E000E5A6E000E5B6E32
:100C6C005FC001F060C002F061C003F062C004F02C
:100C7C0058C005F059C006F05AC007F05BC008F028
:100C8C00E7EC0AF001C054F002C055F003C056F076
:100C9C0004C057F054C028F055C029F056C02AF0B3
:100CAC0057C02BF0000E136E000E146E200E156E36
:100CBC00410E166E50C00FF051C010F052C011F022
:100CCC0053C012F047EC0DF00FC02CF010C02DF0FB
:100CDC0011C02EF012C02FF005EC17F0D8A079EF50
:100CEC0006F07BEF06F0A2EF06F04C4A4D2A50C0FE
:100CFC000FF051C010F052C011F053C012F0000EA2
:100D0C00136E000E146E200E156E410E166E47EC0F
:100D1C000DF00FC050F010C051F011C052F012C0C5
:100D2C0053F0660E4718D8A49EEF06F0A0EF06F01D
:100D3C00A2EF06F04A4A4B2A50C065F051C066F04B
:100D4C0052C067F053C068F04CC03DF04DC03EF04F
:100D5C00000E456E000E426E000E416E000E5D6E72
:100D6C00000E5C6E9CEF07F054C001F055C002F011
:100D7C0056C003F057C004F065C005F066C006F01D
:100D8C0067C007F068C008F05CEC0FF001C01AF007
:100D9C0002C01BF003C01CF004C01DF084EC12F068
:100DAC001AC058F01BC059F01CC05AF01DC05BF0A3
:100DBC0058C001F059C002F05AC003F05BC004F0F7
:100DCC0082EC16F002BEF6EF06F0025007E10A0EB6
:100DDC00015CD8B0F4EF06F0F6EF06F006EF07F082
:100DEC0058C001F059C002F05AC003F05BC004F0C7
:100DFC0082EC16F001C048F002C049F00AEF07F08F
:100E0C00000E496E090E486E4550D8A410EF07F03D
:100E1C0012EF07F03AEF07F03EBE19EF07F017EFAD
:100E2C0007F03AEF07F0000E6324D96E010E642030
:100E3C00DA6E2E0EDF6E634A642A4E06D8A04F0679
:100E4C00010E456E3AEF07F0000E6324D96E010EC9
:100E5C006420DA6E300EDF6E634A642A4E06D8A028
:100E6C004F064106D8A0420641504210D8A441EF8B
:100E7C0007F043EF07F02AEF07F0000E6324D96E5A
:100E8C00010E6420DA6E4850300FDF6E634A642A1C
:100E9C004E06D8A04F0654C028F055C029F056C0B5
:100EAC002AF057C02BF058C013F059C014F05AC098
:100EBC0015F05BC016F065C00FF066C010F067C08F
:100ECC0011F068C012F047EC0DF00FC02CF010C000
:100EDC002DF011C02EF012C02FF053EC1BF028C0D7
:100EEC0054F029C055F02AC056F02BC057F065C0FD
:100EFC0001F066C002F067C003F068C004F0000E99
:100F0C00056E000E066E200E076E410E086E5CEC30
:100F1C000FF001C065F002C066F003C067F004C0BA
:100F2C0068F03D06D8A03E065C4A5D2A4A505C5CDF
:100F3C005D50800A3B6E4B50800A3B58D8B0A9EFED
:100F4C0007F0ABEF07F0B9EF07F064BEB7EF07F0AF
:100F5C00645009E14B0E635CD8A0B7EF07F0B9EF12
:100F6C0007F0BAEF06F0000E5D6E4F0E5C6E000ED1
:100F7C005C24D96E010E5D20DA6E000EDF6E000E61
:100F8C003B6E010E3C6E63503B5E64503C5A5C50B1
:100F9C003B24016E5D503C20026E000E036E010E70
:100FAC00046E63C005F064C006F02BEC1BF06350BC
:100FBC005C5C636E64505D58646E5E50D8A4E9EF5F
:100FCC0007F0ECEF07F0010EEDEF07F0000E5C6E92
:100FDC005D6A7FA2F4EF07F0F6EF07F024EF08F05C
:100FEC0006EF08F06306D8A06406000E6324D96EE1
:100FFC00010E6420DA6E300EDF6E4E06D8A04F065E
:10100C004E505C5C5D50800A3B6E4F50800A3B58E2
:10101C00D8B013EF08F015EF08F024EF08F0635088
:10102C005C5C5D50800A3B6E6450800A3B58D8A0D3
:10103C0022EF08F024EF08F0F8EF07F05E50D8B478
:10104C002AEF08F02CEF08F037EF08F06306D8A071
:10105C006406000E6324D96E010E6420DA6E5EC045
:10106C00DFFF5C504E5E5D504F5A34C011F035C0FE
:10107C0012F0000E6324136E010E6420146E4EC029
:10108C0015F04FC016F032EC19F012006BC0D9FFFE
:10109C006CC0DAFFDECFF6FFDDCFF7FF0800F550AE
:1010AC00250AD8A45CEF08F05EEF08F0D2EF0AF046
:1010BC006BC0D9FF6CC0DAFFDE2A000EDD22000EF9
:1010CC0000018D6F000E8C6F8CC07FF08E698F6964
:1010DC00000E736E000E726E9EEF08F07F826BC076
:1010EC00D9FF6CC0DAFFDE2A000EDD229EEF08F07D
:1010FC00000E736E010E726E9EEF08F06BC0D9FF7E
:10110C006CC0DAFFDECFF6FFDDCFF7FF0800F5503D
:10111C006F6E706A7050000AD8B497EF08F07EEFCB
:10112C0008F06F50300AD8B474EF08F07EEF08F076
:10113C0072507310D8B4A5EF08F0A7EF08F084EF45
:10114C0008F06BC0D9FF6CC0DAFFDECFF6FFDDCF45
:10115C00F7FF0800F5502A0AD8A4B7EF08F0B9EF4A
:10116C0008F0E3EF08F06BC0D9FF6CC0DAFFDE2AA1
:10117C00000EDD226DC0D9FF6EC0DAFFDFCF6FF03D
:10118C00020EDE26DFCF70F0000EDD226FC0D9FF1D
:10119C0070C0DAFFDECF8CF0DDCF8DF000018DBF9B
:1011AC00DCEF08F0DAEF08F016EF09F07F808C6DB9
:1011BC008D1FD8B08D2B16EF09F06BC0D9FF6CC00A
:1011CC00DAFFDECF07F0DDCF08F0DDEC15F007C05D
:1011DC008CF008C08DF0FAEF08F06BC0D9FF6CC032
:1011EC00DAFFDE2A000EDD226BC0D9FF6CC0DAFFFD
:1011FC00DECFF6FFDDCFF7FF0800F5CF6FF0D00E96
:10120C006F24706E716AFF0E7122715009E10A0E23
:10121C00705CD8A014EF09F016EF09F0F3EF08F0AA
:10122C006BC0D9FF6CC0DAFFDECFF6FFDDCFF7FF66
:10123C000800F5502E0AD8A426EF09F028EF09F083
:10124C0096EF09F0000E00018F6F000E8E6F6BC0D1
:10125C00D9FF6CC0DAFFDE2A000EDD226BC0D9FF8D
:10126C006CC0DAFFDECFF6FFDDCFF7FF0800F550DC
:10127C002A0AD8A444EF09F046EF09F063EF09F00D
:10128C006BC0D9FF6CC0DAFFDE2A000EDD226DC008
:10129C00D9FF6EC0DAFFDFCF6FF0020EDE26DFCF94
:1012AC0070F0000EDD226FC0D9FF70C0DAFFDECF08
:1012BC008EF0DDCF8FF096EF09F06BC0D9FF6CC0CC
:1012CC00DAFFDECF07F0DDCF08F0DDEC15F007C05C
:1012DC008EF008C08FF07AEF09F06BC0D9FF6CC0AC
:1012EC00DAFFDE2A000EDD226BC0D9FF6CC0DAFFFC
:1012FC00DECFF6FFDDCFF7FF0800F5CF6FF0D00E95
:10130C006F24706E716AFF0E7122715009E10A0E22
:10131C00705CD8A094EF09F096EF09F073EF09F028
:10132C006BC0D9FF6CC0DAFFDECF7DF0DDCF7EF075
:10133C007DC0F6FF7EC0F7FF0800F550640AD8B4F4
:10134C00AAEF09F0ACEF09F0BAEF09F07DC0F6FF97
:10135C007EC0F7FF0800F550690AD8A4B8EF09F071
:10136C00BAEF09F0FDEF09F06DC0D9FF6EC0DAFFDE
:10137C00DFCF6FF0020EDE26DFCF70F0000EDD2225
:10138C006FC0D9FF70C0DAFFDECF74F0DDCF75F01F
:10139C00000E75BEFF0E766E776E786E796E7A6E75
:1013AC007B6E010E7D246F6E000E7E20706E6BC006
:1013BC00D9FF6CC0DAFF6FC0DEFF70C0DDFF69C003
:1013CC001CF06AC01DF074C01EF075C01FF076C012
:1013DC0020F077C021F078C022F079C023F07AC0D9
:1013EC0024F07BC025F029EC11F0E6EF0AF06BC07D
:1013FC00D9FF6CC0DAFFDECF7DF0DDCF7EF07DC093
:10140C00F6FF7EC0F7FF0800F5CF7CF01AEF0AF06C
:10141C007D4A7E2A33EF0AF06C0E7C6E33EF0AF0B5
:10142C00000E7C6E33EF0AF07C506F6E706A705059
:10143C00000AD8B424EF0AF016EF0AF06F504C0AE9
:10144C00D8B40EEF0AF02A0AD8B412EF0AF00A0A3E
:10145C00D8B40EEF0AF016EF0AF07DC0F6FF7EC08E
:10146C00F7FF0800F550660AD8A43FEF0AF041EFE9
:10147C000AF0C9EF0AF077EF0AF06DC0D9FF6EC021
:10148C00DAFFDFCF6FF0040EDE26DFCF70F0000E38
:10149C00DD226FC0D9FF70C0DAFFDECF74F0DECF73
:1014AC0075F0DECF76F0DECF77F08CEF0AF06DC002
:1014BC00D9FF6EC0DAFFDFCF6FF0040EDE26DFCF70
:1014CC0070F0000EDD226FC0D9FF70C0DAFFDECFE6
:1014DC0074F0DECF75F0DECF76F0DECF77F08CEFE8
:1014EC000AF07C506F6E706A7050000AD8B481EFAD
:1014FC000AF08CEF0AF06F504C0AD8B45DEF0AF08A
:10150C00200AD8B443EF0AF08CEF0AF0010E7D24C8
:10151C006F6E000E7E20706E6BC0D9FF6CC0DAFF50
:10152C006FC0DEFF70C0DDFFB3EF0AF069C034F0AE
:10153C006AC035F074C036F075C037F076C038F03C
:10154C0077C039F07DC0F6FF7EC0F7FF0800F5CFFD
:10155C003AF02EEC03F0E6EF0AF07DC0F6FF7EC009
:10156C00F7FF0800F5506F6E706A7050000AD8B41F
:10157C00C2EF0AF0C9EF0AF06F50660AD8B49CEFBC
:10158C000AF0C9EF0AF06BC0D9FF6CC0DAFFDE2A93
:10159C00000EDD22E6EF0AF06BC0D9FF6CC0DAFF5B
:1015AC00DECFF6FFDDCFF7FF0800F550016E026AC3
:1015BC0069C003F06AC004F078EC18F0C9EF0AF0C7
:1015CC0012000450800B0D6E045004240F6E03AEF9
:1015DC00F2EF0AF0F4EF0AF0F5EF0AF00F800F507B
:1015EC00D8B4FBEF0AF0FDEF0AF012EF0BF00F2866
:1015FC00D8A403EF0BF005EF0BF00DEF0BF0000E82
:10160C00016E000E026E000E036E000E046E038E51
:10161C00000E046E1AEF0BF0000E016E000E026E3F
:10162C00000E036E000E046E0850800B0E6E0D50F3
:10163C000E18D8B424EF0BF026EF0BF027EF0BF0BD
:10164C000D8C085008240E6E07AE2FEF0BF031EF07
:10165C000BF032EF0BF00E800E50D8B438EF0BF0CD
:10166C003AEF0BF04FEF0BF00E28D8A440EF0BF035
:10167C0042EF0BF04AEF0BF0000E056E000E066EFB
:10168C00000E076E000E086E078E000E086E57EFE8
:10169C000BF0000E056E000E066E000E076E000EAF
:1016AC00086E0F500E5CD8B05EEF0BF060EF0BF0D5
:1016BC0087EF0BF00DAC65EF0BF067EF0BF069EFFC
:1016CC000BF0800E0D1A0FC010F00EC00FF010C0F2
:1016DC000EF001C010F005C001F010C005F002C002
:1016EC0010F006C002F010C006F003C010F007C0E6
:1016FC0003F010C007F004C010F008C004F010C0D4
:10170C0008F0000E106E0F500EC009F00A6A095E48
:10171C00000E0A5A0ABE9CEF0BF00A5009E11A0E91
:10172C00095CD8A09CEF0BF09EEF0BF0D5EF0BF003
:10173C000150021003100410D8A4A7EF0BF0AAEF6D
:10174C000BF0010EABEF0BF0000E106E000E016EE5
:10175C00000E026E000E036E000E046E0EC00FF033
:10176C00DEEF0BF010A0BDEF0BF0BFEF0BF0C5EFF1
:10177C000BF0D89010300109106EC7EF0BF0D89019
:10178C00103201A0CCEF0BF0CEEF0BF0CFEF0BF043
:10179C00108E043404320332023201320F2A0E50FE
:1017AC000F5CD8A0DCEF0BF0DEEF0BF0B8EF0BF01A
:1017BC000DBCE3EF0BF0E5EF0BF025EF0CF00F5049
:1017CC00D8A4EBEF0BF0EDEF0BF0F7EF0BF0000EF6
:1017DC00016E000E026E000E036E000E046E46EFDC
:1017EC000DF0055001260650022207500322085026
:1017FC00042204A004EF0CF006EF0CF0B2EF0CF096
:10180C0010A00BEF0CF00DEF0CF013EF0CF0D890C8
:10181C0010300109106E15EF0CF0D890103201A0A9
:10182C001AEF0CF01CEF0CF01DEF0CF0108E0434C2
:10183C0004320332023201320F2AB2EF0CF005509F
:10184C00015C06500258075003580450800A096E78
:10185C000850800A0958D8B036EF0CF038EF0CF06D
:10186C0063EF0CF00150055C096E025006580A6ECD
:10187C00035007580B6E045008580C6EFF0E0924C9
:10188C00016EFF0E0A20026EFF0E0B20036EFF0E80
:10189C000C20046E800E0D1A106C1050D8A459EF49
:1018AC000CF05BEF0CF06BEF0CF0010E0126000E50
:1018BC000222032204226BEF0CF00550015E06504D
:1018CC00025A0750035A0850045A015002100310D0
:1018DC000410D8A474EF0CF076EF0CF0ABEF0CF016
:1018EC001050D8A47CEF0CF07EEF0CF0ABEF0CF0AA
:1018FC00000E016E000E026E000E036E000E046EE2
:10190C0046EF0DF0D890013602360336043610AE91
:10191C0092EF0CF094EF0CF095EF0CF0018010A00E
:10192C009AEF0CF09CEF0CF0A0EF0CF0D880103676
:10193C00A2EF0CF0D89010360F50D8B4A8EF0CF0E2
:10194C00AAEF0CF0ABEF0CF00F0603AEB0EF0CF0FF
:10195C00B2EF0CF088EF0CF0000E0E6E10AEB9EF7B
:10196C000CF0BBEF0CF0D3EF0CF010C009F07F0EB5
:10197C000916D8B4C4EF0CF0C6EF0CF0CAEF0CF09B
:10198C00010E0E6ED3EF0CF001A0CFEF0CF0D1EFE7
:10199C000CF0D3EF0CF0C6EF0CF00E50D8B4D9EF1E
:1019AC000CF0DBEF0CF006EF0DF0010E0126000E33
:1019BC0002220322042204A0E6EF0CF0E8EF0CF064
:1019CC0006EF0DF001C009F002C00AF003C00BF0E5
:1019DC0004C00CF00C340C320B320A32093209C040
:1019EC0001F00AC002F00BC003F00CC004F00F2889
:1019FC00D8B403EF0DF005EF0DF006EF0DF00F2A44
:101A0C000F28D8B40CEF0DF00EEF0DF016EF0DF013
:101A1C000F50D8A414EF0DF016EF0DF028EF0DF0C9
:101A2C00000E016E000E026E000E036E000E046EB0
:101A3C000F50D8A424EF0DF026EF0DF028EF0DF089
:101A4C00000E0D6E0FA02DEF0DF02FEF0DF032EFFD
:101A5C000DF0038E33EF0DF0039ED8900F30046E13
:101A6C000DAE3BEF0DF03DEF0DF03EEF0DF0048EA3
:101A7C0001C001F002C002F003C003F004C004F086
:101A8C0012001250800B1B6E12501224216E11AEDC
:101A9C0052EF0DF054EF0DF055EF0DF02180215069
:101AAC00D8B45BEF0DF05DEF0DF070EF0DF0212869
:101ABC00D8A463EF0DF065EF0DF06DEF0DF0000E97
:101ACC000F6E000E106E000E116E000E126E118E47
:101ADC0078EF0DF0000E0F6E000E106E000E116EF2
:101AEC00000E126E1650800B1B1A16501624206E08
:101AFC0015AE83EF0DF085EF0DF086EF0DF0208025
:101B0C002050D8B48CEF0DF08EEF0DF0A1EF0DF04E
:101B1C002028D8A494EF0DF096EF0DF09EEF0DF069
:101B2C00000E136E000E146E000E156E000E166E67
:101B3C00158EA9EF0DF0000E136E000E146E000E34
:101B4C00156E000E166E2050D8B4AFEF0DF0B1EF3D
:101B5C000DF0B9EF0DF02150D8A4B7EF0DF0B9EF9F
:101B6C000DF0C3EF0DF0000E0F6E000E106E000E98
:101B7C00116E000E126E5BEF0FF015500F02F3CFCB
:101B8C0026F0F4CF27F026501C6E1D6A1E6A1F6AC1
:101B9C002750226E236A246A256A14501002F3CF50
:101BAC0026F0F4CF27F026501C26000E1D221E22F4
:101BBC001F2227502226000E2322242225221350D6
:101BCC001102F3CF26F0F4CF27F026501C26000E7E
:101BDC001D221E221F2227502226000E23222422E1
:101BEC0025221EC01FF01DC01EF01CC01DF01C6A5B
:101BFC0013501002F3CF26F0F4CF27F026501C26FA
:101C0C0027501D22000E1E22000E1F2214500F0200
:101C1C00F3CF26F0F4CF27F026501C2627501D2298
:101C2C00000E1E22000E1F221EC01FF01DC01EF033
:101C3C001CC01DF01C6A13500F02F3CF26F0F4CF1A
:101C4C0027F026501C2627501D22000E1E22000EA7
:101C5C001F2215501002F3CF26F0F4CF27F0265098
:101C6C00222627502322000E2422000E2522145057
:101C7C001102F3CF26F0F4CF27F02650222627505E
:101C8C002322000E2422000E252215501102F3CF20
:101C9C0026F0F4CF27F02650176E2750186E196ACD
:101CAC001A6A19C01AF018C019F017C018F0176A80
:101CBC001750222618502322195024221A5025225C
:101CCC001CC017F01DC018F01EC019F01FC01AF070
:101CDC00190E76EF0EF0D8901A32193218321732DC
:101CEC00E82E71EF0EF017502226185023221950AF
:101CFC0024221A5025221EC01FF01DC01EF01CC02D
:101D0C001DF01C6A205021C017F0186A1726000E0F
:101D1C001822820E1724266EFF0E1820276EACEFA9
:101D2C000EF0D89022362336243625361FAEA1EF7E
:101D3C000EF0A3EF0EF0A4EF0EF02280D8901C361C
:101D4C001D361E361F362606D8A0270624AEB1EF48
:101D5C000EF0B3EF0EF097EF0EF0000E206E1FAEEC
:101D6C00BAEF0EF0BCEF0EF0E0EF0EF0FF0E1C140D
:101D7C00176EFF0E1D14186EFF0E1E14196E7F0EBB
:101D8C001F141A6E1750181019101A10D8B4D1EF5E
:101D9C000EF0D3EF0EF0D7EF0EF0010E206EE0EF49
:101DAC000EF022A0DCEF0EF0DEEF0EF0E0EF0EF006
:101DBC00D3EF0EF02050D8B4E6EF0EF0E8EF0EF0B3
:101DCC000CEF0FF0010E2226000E232224222522D6
:101DDC0025A0F3EF0EF0F5EF0EF00CEF0FF022C094
:101DEC0017F023C018F024C019F025C01AF01A34CB
:101DFC001A3219321832173217C022F018C023F0D9
:101E0C0019C024F01AC025F0264A272A27BE17EF3E
:101E1C000FF0275008E12628D8A017EF0FF019EF84
:101E2C000FF023EF0FF0000E226E000E236E800ECB
:101E3C00246E7F0E256E51EF0FF027BE30EF0FF0A2
:101E4C00275006E12604D8B02EEF0FF030EF0FF03C
:101E5C003CEF0FF0000E226E000E236E000E246E6F
:101E6C00000E256E000E1B6E51EF0FF026C021F0F8
:101E7C00FF0E2216FF0E23167F0E2416000E2516BB
:101E8C0021A04BEF0FF04DEF0FF04EEF0FF0248E23
:101E9C00D8902130256E1B50251222C00FF023C084
:101EAC0010F024C011F025C012F012000450800B69
:101EBC00116E04500424186E03AE67EF0FF069EF37
:101ECC000FF06AEF0FF018801850D8B470EF0FF0C5
:101EDC0072EF0FF087EF0FF01828D8A478EF0FF0FF
:101EEC007AEF0FF082EF0FF0000E016E000E026E13
:101EFC00000E036E000E046E038E000E046E8FEF48
:101F0C000FF0000E016E000E026E000E036E000E3E
:101F1C00046E0850800B111A08500824196E07AE75
:101F2C009AEF0FF09CEF0FF09DEF0FF01980195006
:101F3C00D8B4A3EF0FF0A5EF0FF0BAEF0FF01928FC
:101F4C00D8A4ABEF0FF0ADEF0FF0B5EF0FF0000E24
:101F5C00056E000E066E000E076E000E086E078EE4
:101F6C00000E086EC2EF0FF0000E056E000E066E2E
:101F7C00000E076E000E086E0550061007100810B4
:101F8C00D8A4CBEF0FF0CDEF0FF0E5EF0FF0000E74
:101F9C00016E000E026E000E036E000E046E800EBB
:101FAC0003127F0E04121150041201C001F002C082
:101FBC0002F003C003F004C004F028EF11F0185035
:101FCC00D8A4EBEF0FF0EDEF0FF0F7EF0FF0000EE2
:101FDC00016E000E026E000E036E000E046E28EFF2
:101FEC0011F0195018C009F00A6A095E000E0A5A5D
:101FFC007F0E0924126E000E0A20136E01C00DF024
:10200C0002C00EF003C00FF004C010F0000E016E01
:10201C00000E026E000E036E000E046E000E146EA7
:10202C00000E156E000E166E000E176E000E196E59
:10203C0058EF10F01950D8B426EF10F028EF10F02C
:10204C003FEF10F0D8900D360E360F361036D89074
:10205C00013602360336043617AE37EF10F039EF7F
:10206C0010F03AEF10F00180D89014361536163671
:10207C00173605500D5C06500E5807500F58085077
:10208C001058D8A04CEF10F04EEF10F057EF10F0A6
:10209C00178C05500D5E06500E5A07500F5A0850FB
:1020AC00105A192A190E19645EEF10F060EF10F037
:1020BC0020EF10F00D500E100F101010D8B469EF67
:1020CC0010F06BEF10F083EF10F0148083EF10F032
:1020DC00D890013602360336043617AE78EF10F07E
:1020EC007AEF10F07BEF10F00180D8901436153693
:1020FC00163617361206D8A0130603AE88EF10F06A
:10210C008AEF10F06EEF10F0000E196E17AE91EF13
:10211C0010F093EF10F0B7EF10F0FF0E1414096EDF
:10212C00FF0E15140A6EFF0E16140B6E7F0E17148D
:10213C000C6E09500A100B100C10D8B4A8EF10F04C
:10214C00AAEF10F0AEEF10F0010E196EB7EF10F011
:10215C0001A0B3EF10F0B5EF10F0B7EF10F0AAEF4D
:10216C0010F01950D8B4BDEF10F0BFEF10F0E3EF42
:10217C0010F0010E0126000E02220322042204A0FC
:10218C00CAEF10F0CCEF10F0E3EF10F001C009F043
:10219C0002C00AF003C00BF004C00CF00C340C327B
:1021AC000B320A32093209C001F00AC002F00BC02E
:1021BC0003F00CC004F0124A132A13BEEEEF10F019
:1021CC00135008E11228D8A0EEEF10F0F0EF10F049
:1021DC00FBEF10F0000E136E1268000E016E000E75
:1021EC00026E000E036E000E046E13BE08EF11F0AB
:1021FC00135006E11204D8B006EF11F008EF11F0FD
:10220C0016EF11F0000E136E000E126E000E016E22
:10221C00000E026E000E036E000E046E000E116EA8
:10222C0012C018F018A01DEF11F01FEF11F022EFE3
:10223C0011F0038E23EF11F0039ED8901830046E2A
:10224C00D9EF0FF012001EC034F01FC035F020C0C3
:10225C0036F021C037F022C038F023C039F024C04A
:10226C003AF025C03BF03BBE3EEF11F041EF11F0D0
:10227C00010E42EF11F0000E3E6E3E50D8B449EF05
:10228C0011F04BEF11F05BEF11F03B1E3A1E391EB3
:10229C00381E371E361E351E346C000E3522362283
:1022AC003722382239223A223B2200018FBF61EFBC
:1022BC0011F063EF11F064EF11F07F928FBF71EFAB
:1022CC0011F08F5106E18E05D8B06FEF11F071EF60
:1022DC0011F077EF11F0000E316E010E306E7BEFC6
:1022EC0011F08EC030F08FC031F08CC032F08DC048
:1022FC0033F03E50D8B485EF11F087EF11F09EEF1C
:10230C0011F03206D8A033063E50D8A490EF11F04D
:10231C0092EF11F098EF11F0000E2F6E2B0E2E6E27
:10232C009CEF11F0000E2F6E2D0E2E6E2EC03EF077
:10233C00000E3D6E4F0E3C6E000E01014F6F23EFF1
:10234C0012F03C06D8A03D06000E3C24D96E010EBE
:10235C003D20DA6E34C001F035C002F036C003F017
:10236C0037C004F038C005F039C006F03AC007F0A9
:10237C003BC008F00A0E096E000E0A6E000E0B6EC2
:10238C00000E0C6E000E0D6E000E0E6E000E0F6E1B
:10239C00000E106E2BEC15F001C026F002C027F0D9
:1023AC0003C028F004C029F005C02AF006C02BF0A9
:1023BC0007C02CF008C02DF026C013F027C014F075
:1023CC00DBEC1BF01350300FDF6E3006D8A031065B
:1023DC003206D8A0330634C001F035C002F036C046
:1023EC0003F037C004F038C005F039C006F03AC02D
:1023FC0007F03BC008F00A0E096E000E0A6E000EC4
:10240C000B6E000E0C6E000E0D6E000E0E6E000E9E
:10241C000F6E000E106E67EC14F001C034F002C0A9
:10242C0035F003C036F004C037F005C038F006C0F4
:10243C0039F007C03AF008C03BF03DBE2EEF12F069
:10244C003D5008E13C04D8A02EEF12F030EF12F012
:10245C0060EF12F034503510361037103810391038
:10246C003A103B10D8A43DEF12F03FEF12F0A7EF5B
:10247C0011F031BE4CEF12F0315006E13004D8B0FF
:10248C004AEF12F04CEF12F0A7EF11F033BE57EFFA
:10249C0012F0335008E13204D8A057EF12F059EF84
:1024AC0012F060EF12F07FB25EEF12F060EF12F0FC
:1024BC00A7EF11F03E50D8B466EF12F068EF12F0AF
:1024CC0073EF12F03C06D8A03D06000E3C24D96EEA
:1024DC00010E3D20DA6E3EC0DFFF1CC011F01DC0A6
:1024EC0012F0000E3C24136E010E3D20146E32C00F
:1024FC0015F033C016F032EC19F0120080C02AF03F
:10250C0081C02BF082C02CF083C02DF01AC02AF0B1
:10251C001BC02BF01CC02CF01DC02DF0810E1E6EAC
:10252C00FF0E1F6E2AC020F02BC021F02CC022F011
:10253C002DC023F0180EA8EF12F0D89023322232BF
:10254C0021322032E82EA3EF12F020501E24286EE8
:10255C00000E1F20296E29BEBDEF12F0295009E193
:10256C00170E285CD8A0BDEF12F0BFEF12F0C9EF28
:10257C0012F01AC01AF01BC01BF01CC01CF01DC0BE
:10258C001DF08CEF13F029BECEEF12F0D0EF12F04D
:10259C0040EF13F028C01EF0FF0E1F6EFF0E206ED2
:1025AC007F0E216E000E226E1E66DFEF12F0E7EF3B
:1025BC0012F022342232213220321F321E2EDAEF58
:1025CC0012F01FC024F020C025F021C026F022C03C
:1025DC0027F024502A141E6E25502B141F6E2650E3
:1025EC002C14206E27502D14216E1E501F102010FD
:1025FC002110D8A404EF13F006EF13F008EF13F03A
:10260C00BFEF12F02AC01EF02BC01FF02CC020F020
:10261C002DC021F0200E18EF13F0D890213220326B
:10262C001F321E32E82E13EF13F01E501F10201015
:10263C002110D8B424EF13F026EF13F02EEF13F083
:10264C0024502A2625502B2226502C2227502D226E
:10265C00241C1E6E251C1F6E261C206E271C216E32
:10266C001E502A161F502B1620502C1621502D169A
:10267C0084EF13F02AC01EF02BC01FF02CC020F0EA
:10268C002DC021F0200E50EF13F0D89021322032C3
:10269C001F321E32E82E4BEF13F01E501F1020106D
:1026AC002110D8A45CEF13F05EEF13F068EF13F079
:1026BC00000E2A6E000E2B6E000E2C6E000E2D6E70
:1026CC0084EF13F0D8902A341E6E2B341F6E2C34EA
:1026DC00206E2D34216E1E501F1020102110D8B4E6
:1026EC007AEF13F07CEF13F084EF13F0000E2A6EE8
:1026FC00000E2B6E800E2C6EBF0E2D6E2AC01AF0A3
:10270C002BC01BF02CC01CF02DC01DF01200096E4C
:10271C000950D8B494EF13F096EF13F0B8EF13F010
:10272C0004BE9DEF13F09BEF13F0B8EF13F001C054
:10273C0005F002C006F003C007F004C008F0051E47
:10274C00061E071E081E052A000E06220722082256
:10275C0005C00BF006C00CF007C00DF008C00EF061
:10276C00C0EF13F001C00BF002C00CF003C00DF071
:10277C0004C00EF00150021003100410D8A4C9EFCD
:10278C0013F0CBEF13F0D5EF13F0000E016E000E2B
:10279C00026E000E036E000E046E66EF14F0960EC1
:1027AC000A6EDFEF13F00A2AD8900E320D320C327B
:1027BC000B32000E0B14056E000E0C14066E000E80
:1027CC000D14076EFE0E0E14086E05500610071041
:1027DC000810D8A4F4EF13F0F6EF13F0D9EF13F0C0
:1027EC0004EF14F00A2A010E0B26000E0C220D2207
:1027FC000E22D8900E320D320C320B32000E0B140E
:10280C00056E000E0C14066E000E0D14076EFF0EF6
:10281C000E14086E0550061007100810D8A419EFF6
:10282C0014F01BEF14F0F8EF13F023EF14F00A067A
:10283C00D8900B360C360D360E360DBE28EF14F034
:10284C002AEF14F032EF14F0020E0A6030EF14F09D
:10285C0032EF14F01DEF14F00AB037EF14F039EF2B
:10286C0014F03AEF14F00D9ED8900A320AC005F01D
:10287C00066A076A086A05C008F0076A066A056AEC
:10288C0005500B1206500C1207500D1208500E1268
:10289C000950D8B454EF14F056EF14F05EEF14F066
:1028AC0004BE5DEF14F05BEF14F05EEF14F00E8ECF
:1028BC000BC001F00CC002F00DC003F00EC004F010
:1028CC001200000E126E10BE70EF14F06EEF14F0CA
:1028DC0082EF14F0101E0F1E0E1E0D1E0C1E0B1E72
:1028EC000A1E096C000E0A220B220C220D220E224B
:1028FC000F221022010E126E08BE89EF14F087EF22
:10290C0014F09BEF14F0081E071E061E051E041E75
:10291C00031E021E016C000E022203220422052259
:10292C00062207220822010E121A20EE13F0070EBF
:10293C00DE6AE806FDE209500A100B100C100D10AF
:10294C000E100F101010D8B4AEEF14F0B0EF14F04E
:10295C0002EF15F0010E116EBEEF14F0D89009368F
:10296C000A360B360C360D360E360F361036112A4B
:10297C0010AEC3EF14F0C5EF14F0B4EF14F0D89010
:10298C0013361436153616361736183619361A36D7
:10299C000950015C0A5002580B5003580C50045853
:1029AC000D5005580E5006580F5007581050085827
:1029BC00D8A0E3EF14F0E5EF14F0F6EF14F00950A3
:1029CC00015E0A50025A0B50035A0C50045A0D5017
:1029DC00055A0E50065A0F50075A1050085A1380B9
:1029EC00D89010320F320E320D320C320B320A32BA
:1029FC000932112EC5EF14F01250D8B408EF15F0AF
:102A0C000AEF15F01AEF15F01A1E191E181E171ED4
:102A1C00161E151E141E136C000E142215221622DF
:102A2C001722182219221A2213C001F014C002F026
:102A3C0015C003F016C004F017C005F018C006F05E
:102A4C0019C007F01AC008F01200000E126E08BE72
:102A5C0034EF15F032EF15F046EF15F0081E071E97
:102A6C00061E051E041E031E021E016C000E022211
:102A7C00032204220522062207220822010E126ECE
:102A8C0010BE4DEF15F04BEF15F05DEF15F0101E6D
:102A9C000F1E0E1E0D1E0C1E0B1E0A1E096C000EA8
:102AAC000A220B220C220D220E220F221022095078
:102ABC000A100B100C100D100E100F101010D8B4B3
:102ACC006AEF15F06CEF15F0B4EF15F0010E116E06
:102ADC007AEF15F0D89009360A360B360C360D36CF
:102AEC000E360F361036112A10AE7FEF15F081EF2F
:102AFC0015F070EF15F00950015C0A5002580B509C
:102B0C0003580C5004580D5005580E5006580F50D1
:102B1C00075810500858D8A096EF15F098EF15F0FC
:102B2C00A8EF15F00950015E0A50025A0B50035AD7
:102B3C000C50045A0D50055A0E50065A0F50075A95
:102B4C001050085AD89010320F320E320D320C320F
:102B5C000B320A320932112E81EF15F01250D8B413
:102B6C00BAEF15F0BCEF15F0CCEF15F0081E071EF0
:102B7C00061E051E041E031E021E016C000E022200
:102B8C0003220422052206220722082201C001F09A
:102B9C0002C002F003C003F004C004F005C005F04D
:102BAC0006C006F007C007F008C008F01200000EBF
:102BBC000F6E000E0E6E000E0D6E000E0C6EE9EF19
:102BCC0015F0074A082A07C0F6FF08C0F7FF0800EF
:102BDC00F550200AD8B4F5EF15F0F7EF15F0E7EF44
:102BEC0015F007C0F6FF08C0F7FF0800F5CF09F095
:102BFC00F70E09240A6E0B6AFF0E0B220B5009E12B
:102C0C00050E0A5CD8A00DEF16F00FEF16F0E7EFEB
:102C1C0015F019EF16F0000E0D6E010E0C6E074A32
:102C2C00082A4EEF16F007C0F6FF08C0F7FF0800A1
:102C3C00F550096E0A6A0A50000AD8B428EF16F04B
:102C4C004EEF16F009502B0AD8B415EF16F0060A01
:102C5C00D8B411EF16F04EEF16F00EC001F00FC005
:102C6C0002F0000E046E0A0E036E5BEC1CF007C043
:102C7C00F6FF08C0F7FF0800F550015E000E025A7F
:102C8C00300E01240E6E000E02200F6E15EF16F0A2
:102C9C0007C0F6FF08C0F7FF0800F5CF09F0D00E0B
:102CAC0009240A6E0B6AFF0E0B220B5009E10A0E67
:102CBC000A5CD8A064EF16F066EF16F033EF16F04E
:102CCC000C500D10D8A46DEF16F06FEF16F07DEFD1
:102CDC0016F00EC009F00FC00AF0091E0A1E094AB0
:102CEC000A2A09C007F00AC008F081EF16F00EC0DE
:102CFC0007F00FC008F01200033404340A6E0A50B7
:102D0C00D8A48BEF16F08DEF16F097EF16F0000E9F
:102D1C00016E000E026E000E036E000E046E04EFC8
:102D2C0017F001C005F002C006F003C007F004C0A4
:102D3C0008F0200EA7EF16F0D890083207320632B2
:102D4C000532E82EA2EF16F00550096E038EFF0E29
:102D5C000116FF0E0216FF0E0316000E0416960E39
:102D6C000A5E0ABEBEEF16F0BCEF16F0D4EF16F0FA
:102D7C000A50800A970FD8B0C6EF16F0C8EF16F0BD
:102D8C00CAEF16F08DEF16F0D890043203320232EF
:102D9C0001320A3ECAEF16F0ECEF16F01F0E0A6471
:102DAC00DAEF16F0DCEF16F0E4EF16F08DEF16F01C
:102DBC00D89001360236033604360A060A50D8A4D7
:102DCC00EAEF16F0ECEF16F0DEEF16F00950D8B47F
:102DDC00F2EF16F0F4EF16F0FCEF16F0041E031EE3
:102DEC00021E016C000E02220322042201C001F01B
:102DFC0002C002F003C003F004C004F01200000E85
:102E0C002814306E000E2914316E800E2A14326E86
:102E1C007F0E2B14336E3050311032103310D8A477
:102E2C001AEF17F01CEF17F024EF17F0000E286EB6
:102E3C00000E296E000E2A6E000E2B6E000E2C1446
:102E4C00306E000E2D14316E800E2E14326E7F0EED
:102E5C002F14336E3050311032103310D8A439EF98
:102E6C0017F03BEF17F043EF17F0000E2C6E000E2F
:102E7C002D6E000E2E6E000E2F6E2BAE48EF17F03F
:102E8C004AEF17F053EF17F0286C291ED8B0292AF7
:102E9C002A1ED8B02A2A800E2B562FAE58EF17F0C8
:102EAC005AEF17F063EF17F02C6C2D1ED8B02D2AAB
:102EBC002E1ED8B02E2A800E2F56000E281A000E69
:102ECC00291A000E2A1A800E2B1A000E2C1A000E2C
:102EDC002D1A000E2E1A800E2F1A2C50285C2D50F5
:102EEC0029582E502A582F502B58D8B080EF17F055
:102EFC0082EF17F085EF17F0D89086EF17F0D88097
:102F0C00120084C00BF085C00CF086C00DF087C099
:102F1C000EF001C00BF002C00CF003C00DF004C0A9
:102F2C000EF00BC005F00CC006F00DC007F00EC083
:102F3C0008F0180EA7EF17F0D890083207320632B7
:102F4C000532E82EA2EF17F00550096E0A6A0950F7
:102F5C000A10D8A4B4EF17F0B6EF17F0D6EF17F0AD
:102F6C00D8900B34056E0C34066E0D34076E0E348F
:102F7C00086E0550061007100810D8A4C8EF17F0FB
:102F8C00CAEF17F0D0EF17F0000E026E020E016EB2
:102F9C0005EF18F0000E026E030E016E05EF18F02F
:102FAC0009280A10D8A4DDEF17F0DFEF17F001EFB6
:102FBC0018F00BC005F00CC006F00DC007F00EC0E9
:102FCC0008F0090ED8900536063607360836E82E76
:102FDC00E8EF17F00550061007100810D8B4F9EFF9
:102FEC0017F0FCEF17F0010EFDEF17F0000E016E5D
:102FFC00026A05EF18F0000E026E040E016E12004C
:10300C00046E100E016E045080EC1CF0036E033A3B
:10301C0083500318EF0B0318836E200E016E0450BF
:10302C0080EC1CF0036E033A034683500318DF0B4D
:10303C000318836E400E016E045080EC1CF0036E7E
:10304C00033A0346034683500318BF0B0318836EE1
:10305C00800E016E045080EC1CF0036E03320332C0
:10306C00835003187F0B0318836E84848494420E60
:10307C00E82EFED700D0010E016E045080EC1CF03F
:10308C00036E033A83500318EF0B0318836E020E82
:10309C00016E045080EC1CF0036E033A034683501F
:1030AC000318DF0B0318836E040E016E045080ECC2
:1030BC001CF0036E033A0346034683500318BF0B00
:1030CC000318836E080E016E045080EC1CF0036E26
:1030DC0003320332835003187F0B0318836E8484EE
:1030EC008494120003500410D8B47FEF18F081EFD1
:1030FC0018F08AEF18F003500410D8A488EF18F0D9
:10310C008AEF18F08FEF18F00150AEEC1CF0DCEFEA
:10311C0018F020EE09F00350D9260450DA22DE50C4
:10312C00DE10D8B49CEF18F09EEF18F0B9EF18F041
:10313C0020EE09F00350D9260450DA2210EE03F0E9
:10314C000350E1260450E222DE50E65CE650800A91
:10315C00096EDE50800A0958D8B0B7EF18F0B9EFF5
:10316C0018F0DCEF18F020EE03F00350D9260450D1
:10317C00DA22DECF05F0DDCF06F003C0D9FF04C0A4
:10318C00DAFFDECF07F0DDCF08F005500724D96E4B
:10319C0006500820DA6E01C0DFFF20EE03F003506A
:1031AC00D9260450DA22DE2A000EDD221200000E8F
:1031BC000114096E000E02140A6E800E03140B6EBD
:1031CC007F0E04140C6E09500A100B100C10D8A4AE
:1031DC00F2EF18F0F4EF18F0FCEF18F0000E016E9F
:1031EC00000E026E000E036E000E046E000E05142F
:1031FC00096E000E06140A6E800E07140B6E7F0EFD
:10320C0008140C6E09500A100B100C10D8A411EFF6
:10321C0019F013EF19F01BEF19F0000E056E000EEC
:10322C00066E000E076E000E086E055001180FE1B9
:10323C00065002180CE10750031809E10850041855
:10324C00D8B42BEF19F02DEF19F030EF19F0D8900E
:10325C0031EF19F0D88012007FA037EF19F039EF59
:10326C0019F043EF19F013C00AF014C00BF011C0A1
:10327C000CF012C00DF099EC1BF016BE48EF19F0D3
:10328C004AEF19F050EF19F015C01AF016C01BF0E8
:10329C0054EF19F0000E1B6E000E1A6E000E196E14
:1032AC00000E186E66EF19F0000E026E200E016E05
:1032BC0011C003F012C004F078EC18F0184A192A67
:1032CC001A50185C1950800A176E1B50800A175838
:1032DC00D8A073EF19F075EF19F05AEF19F07FB011
:1032EC007AEF19F07CEF19F086EF19F013C00AF0A1
:1032FC0014C00BF011C00CF012C00DF099EC1BF0C7
:10330C0012000B6E0B04D8A48EEF19F090EF19F08D
:10331C0095EF19F007507F0F0A6EA1EF19F0020E0E
:10332C000B18D8A49CEF19F09EEF19F0A1EF19F02F
:10333C000750BF0F0A6E0AC005F0000E90EC1CF08F
:10334C00BEEF19F008C0F6FF09C0F7FFF86A050ECA
:10335C00F76403D00800F55005D0F6CFE1FFF7CFA6
:10336C00E2FFE750056E010E90EC1CF0084A092AAA
:10337C0008C0F6FF09C0F7FFF86A050EF76403D022
:10338C000800F55005D0F6CFE1FFF7CFE2FFE7508C
:10339C000009D8A4D4EF19F0D6EF19F0A8EF19F062
:1033AC001200000E956E969496929690000E836E77
:1033BC00849084928494270E056EF50EE82EFED729
:1033CC00052EFCD700F0000E066E300E06EC18F041
:1033DC000D0E056EFC0EE82EFED7052EFCD7062A28
:1033EC00020E0664FCEF19F0FEEF19F0EBEF19F08A
:1033FC00020E06EC18F01A0EE82EFED700D0280E9E
:10340C0006EC18F01A0EE82EFED700D0010E06ECD2
:10341C0018F0060E056E300EE82EFED7052EFCD7E2
:10342C0000D00C0E06EC18F01A0EE82EFED700D0C9
:10343C00060E06EC18F01A0EE82EFED700D012007D
:10344C00A20E0001BA6F000EBB6F200EBC6F060EF1
:10345C00BD6F90C0BEF091C0BFF0DAEC1AF0920EC6
:10346C000001BA6F000EBB6F110EBC6F060EBD6F64
:10347C0088C0BEF089C0BFF08AC0C0F08BC0C1F05C
:10348C00DAEC1AF0010E076E4A0E086E060E096E83
:10349C00010E87EC19F0060E076EA20E086E000ED8
:1034AC00096E010E87EC19F0010E076E3E0E086EC8
:1034BC00060E096E020E87EC19F00A0E076E920EBC
:1034CC00086E000E096E020E87EC19F012000D0E3C
:1034DC00E82EFED700F0C282C2B277EF1AF079EF75
:1034EC001AF072EF1AF0C4CF90F00001916B90516A
:1034FC00286EC350906F28C091F090C001F091C01D
:10350C0002F0036A046A000E8DEC13F001C00FF098
:10351C0002C010F003C011F004C012F04B0E136E79
:10352C003C0E146EA00E156E3B0E166E47EC0DF095
:10353C000FC088F010C089F011C08AF012C08BF057
:10354C00120004BEB6EF1AF004500310021006E18C
:10355C000104D8B0B4EF1AF0B6EF1AF0D1EF1AF0AC
:10356C0001C005F002C006F003C007F004C008F06B
:10357C00051E061E071E081E052A000E062207221F
:10358C00082205C001F006C002F007C003F008C015
:10359C0004F0D9EF1AF001C001F002C002F003C030
:1035AC0003F004C004F01200BE0E0001C26F000E46
:1035BC00C36FBAC0C4F0BBC0C5F0000EC86F000E1C
:1035CC00C76F000ECE6F000ECD6FC40EB26F000E23
:1035DC00B36FBCC0B4F0BDC0B5F0C20EB66F000E78
:1035EC00B76F03EC1BF00001C751BA25D96EC85157
:1035FC00BB21DA6E000EDF6E1200B4C0B8F0B5C09D
:10360C00B9F017EF1BF0B2C069F0B3C06AF0B80E96
:10361C006B6E000E6C6EB6C06DF0B7C06EF04CECFD
:10362C0008F0B8C0F6FFB9C0F7FF0800F550000964
:10363C00D8A423EF1BF025EF1BF009EF1BF0000EB5
:10364C000001B36F000EB26F120003C009F004C08A
:10365C000AF001C007F002C008F045EF1BF009C0EA
:10366C00D9FF0AC0DAFFDF500B6E094A0A2A07C0DD
:10367C00D9FF08C0DAFF0BC0DFFF074A082A05068E
:10368C00D8A00606052806E10628D8A450EF1BF0A2
:10369C0052EF1BF035EF1BF01200000E2C1A000E2F
:1036AC002D1A000E2E1A800E2F1A28C001F029C0D8
:1036BC0002F02AC003F02BC004F02CC005F02DC082
:1036CC0006F02EC007F02FC008F0E7EC0AF001C09E
:1036DC0028F002C029F003C02AF004C02BF012001D
:1036EC00010E056E200E01180210D8B480EF1BF0ED
:1036FC0082EF1BF095EF1BF0F70E0124036EFF0E0B
:10370C000220046E045009E1050E035CD8A091EF71
:10371C001BF093EF1BF095EF1BF0000E056E05C030
:10372C0001F0026A1200000E106E000E0F6EAAEF6E
:10373C001BF00EC001F0026A0CC003F00DC004F0C7
:10374C0078EC18F00F4A102A0F500A24D96E10503A
:10375C000B20DA6EDF500E6E0E50D8A4B8EF1BF0B3
:10376C00BAEF1BF09FEF1BF0120003C005F004C072
:10377C0006F001C007F002C008F005C0F6FF06C055
:10378C00F7FF054A062A07C0D9FF08C0DAFF074A27
:10379C00082A0800F5CFDFFFDF50D8A4D8EF1BF0C4
:1037AC00DAEF1BF0C3EF1BF0120014BEE8EF1BF0B6
:1037BC00145006E11304D8B0E6EF1BF0E8EF1BF051
:1037CC00F6EF1BF013C015F014C016F0151E161EE4
:1037DC00154A162A15C013F016C014F0FAEF1BF098
:1037EC0013C013F014C014F0120001500210031097
:1037FC000410D8B404EF1CF006EF1CF00EEF1CF014
:10380C00000E011A000E021A000E031A800E041A82
:10381C0001C001F002C002F003C003F004C004F0C8
:10382C001200A6EC1CF0ABEC1CF09FEC1CF0D7ECDF
:10383C0019F06DEC1AF081A026EF1CF028EF1CF0AB
:10384C002CEF1CF026EC1AF01FEF1CF048EC1CF0CF
:10385C001FEF1CF000EF00F0D00E0124036EFF0EE2
:10386C000220046E04500AE10A0E035CD8A041EF5A
:10387C001CF044EF1CF0010E45EF1CF0000E016E25
:10388C00026A1200010E076E2F0E086E060E096EEC
:10389C00010E87EC19F0010E076E010E086E060E74
:1038AC00096E020E87EC19F0120001500302F3CFDF
:1038BC0005F0F4CF06F001500402F3500626025036
:1038CC000302F350062605C001F006C002F01200F8
:1038DC0001EE00F0500EEE6AE806FDE100EE80F01D
:1038EC00320EEE6AE806FDE17F6A000EF86E00010A
:1038FC0017EF1CF0026E025001140009D8B489EFC6
:10390C001CF08BEF1CF08EEF1CF0010E8FEF1CF0F7
:10391C00000E1200066E06B002D0849001D0848096
:10392C00420EE82EFED700D08494055006EC18F019
:10393C001200010EC26E0E0EC16E870EC06E12000A
:10394C00000ED36E000E9B6E1200010E936E1200D1
:02395C00120057
:020000040020DA
:08000000FFFFFFFFFFFFFFFF00
:020000040030CA
:0E000000FF021F1EFF8181FF0FC00FE00F40A7
:00000001FF
