:04000000F4EF0AF01F
:10060000002020202020202020202020202020200A
:10061000200020202020434F554E544552202020BA
:10062000200041554C412031202D204C43443A209C
:1006300020002530326400001EC034F01FC035F0A9
:1006400020C036F021C037F022C038F023C039F086
:1006500024C03AF025C03BF03BBE31EF03F034EF4D
:1006600003F0010E35EF03F0000E3E6E3E50D8B49D
:100670003CEF03F03EEF03F04EEF03F03B1E3A1E5B
:10068000391E381E371E361E351E346C000E3522BC
:1006900036223722382239223A223B2274BE53EFC7
:1006A00003F055EF03F056EF03F0779274BE63EF5B
:1006B00003F0745006E17304D8B061EF03F063EF08
:1006C00003F069EF03F0000E316E010E306E6DEF36
:1006D00003F073C030F074C031F071C032F072C0FA
:1006E00033F03E50D8B477EF03F079EF03F090EF9A
:1006F00003F03206D8A033063E50D8A482EF03F0B0
:1007000084EF03F08AEF03F0000E2F6E2B0E2E6E97
:100710008EEF03F0000E2F6E2D0E2E6E2EC03EF0CB
:10072000000E3D6E1F0E3C6E000E00019F6F15EF18
:1007300004F03C06D8A03D06800E3C24D96E000E85
:100740003D20DA6E34C001F035C002F036C003F04F
:1007500037C004F038C005F039C006F03AC007F0E1
:100760003BC008F00A0E096E000E0A6E000E0B6EFA
:10077000000E0C6E000E0D6E000E0E6E000E0F6E53
:10078000000E106E87EC06F001C026F002C027F0C4
:1007900003C028F004C029F005C02AF006C02BF0E1
:1007A00007C02CF008C02DF026C013F027C014F0AD
:1007B000ABEC0AF01350300FDF6E3006D8A03106D4
:1007C0003206D8A0330634C001F035C002F036C07E
:1007D00003F037C004F038C005F039C006F03AC065
:1007E00007F03BC008F00A0E096E000E0A6E000EFC
:1007F0000B6E000E0C6E000E0D6E000E0E6E000ED7
:100800000F6E000E106EC3EC05F001C034F002C094
:1008100035F003C036F004C037F005C038F006C02C
:1008200039F007C03AF008C03BF03DBE20EF04F0BD
:100830003D5008E13C04D8A020EF04F022EF04F082
:1008400052EF04F03450351036103710381039108C
:100850003A103B10D8A42FEF04F031EF04F099EFD9
:1008600003F031BE3EEF04F0315006E13004D8B061
:100870003CEF04F03EEF04F099EF03F033BE49EF94
:1008800004F0335008E13204D8A049EF04F04BEFF4
:1008900004F052EF04F077B250EF04F052EF04F09E
:1008A00099EF03F03E50D8B458EF04F05AEF04F03B
:1008B00065EF04F03C06D8A03D06800E3C24D96EBE
:1008C000000E3D20DA6E3EC0DFFF1CC011F01DC0DF
:1008D00012F0800E3C24136E000E3D20146E32C0C8
:1008E00015F033C016F024EC09F0120041C0D9FF16
:1008F00042C0DAFFDECFF6FFDDCFF7FF0800F5508C
:10090000250AD8A486EF04F088EF04F0AEEF05F0D6
:1009100041C0D9FF42C0DAFFDE2A000EDD22000E00
:10092000726E000E716E71C077F073687468000E9D
:10093000516E000E506EC7EF04F0778241C0D9FFB0
:1009400042C0DAFFDE2A000EDD22C7EF04F0000EFF
:10095000516E010E506EC7EF04F041C0D9FF42C086
:10096000DAFFDECFF6FFDDCFF7FF0800F550456E6A
:10097000466A4650000AD8B4C0EF04F0A7EF04F06E
:100980004550300AD8B49DEF04F0A7EF04F0505062
:100990005110D8B4CEEF04F0D0EF04F0ADEF04F076
:1009A00041C0D9FF42C0DAFFDECFF6FFDDCFF7FF4F
:1009B0000800F5502A0AD8A4E0EF04F0E2EF04F0B2
:1009C0000BEF05F041C0D9FF42C0DAFFDE2A000E6E
:1009D000DD2243C0D9FF44C0DAFFDFCF45F0020E6D
:1009E000DE26DFCF46F0000EDD2245C0D9FF46C02F
:1009F000DAFFDECF71F0DDCF72F072BE04EF05F0EA
:100A000002EF05F03EEF05F07780716C721ED8B0F2
:100A1000722A3EEF05F041C0D9FF42C0DAFFDECFB7
:100A200007F0DDCF08F039EC07F007C071F008C01F
:100A300072F022EF05F041C0D9FF42C0DAFFDE2A92
:100A4000000EDD2241C0D9FF42C0DAFFDECFF6FF43
:100A5000DDCFF7FF0800F5CF45F0D00E4524466EF8
:100A6000476AFF0E4722475009E10A0E465CD8A0AC
:100A70003CEF05F03EEF05F01BEF05F041C0D9FF5C
:100A800042C0DAFFDECF52F0DDCF53F052C0F6FFA6
:100A900053C0F7FF0800F550640AD8B452EF05F0D0
:100AA00054EF05F062EF05F052C0F6FF53C0F7FFB8
:100AB0000800F550690AD8A460EF05F062EF05F070
:100AC000A5EF05F043C0D9FF44C0DAFFDFCF45F002
:100AD000020EDE26DFCF46F0000EDD2245C0D9FF34
:100AE00046C0DAFFDECF48F0DDCF49F0000E49BE48
:100AF000FF0E4A6E4B6E4C6E4D6E4E6E4F6E010E7B
:100B00005224456E000E5320466E41C0D9FF42C0AC
:100B1000DAFF45C0DEFF46C0DDFF3FC01CF040C02D
:100B20001DF048C01EF049C01FF04AC020F04BC065
:100B300021F04CC022F04DC023F04EC024F04FC035
:100B400025F01CEC03F0C2EF05F041C0D9FF42C014
:100B5000DAFFDE2A000EDD22C2EF05F041C0D9FF28
:100B600042C0DAFFDECFF6FFDDCFF7FF0800F55019
:100B7000016E026A3FC003F040C004F0BFEC08F011
:100B8000A5EF05F01200000E126E10BECCEF05F0BE
:100B9000CAEF05F0DEEF05F0101E0F1E0E1E0D1E33
:100BA0000C1E0B1E0A1E096C000E0A220B220C22C0
:100BB0000D220E220F221022010E126E08BEE5EF4A
:100BC00005F0E3EF05F0F7EF05F0081E071E061E1F
:100BD000051E041E031E021E016C000E02220322CB
:100BE00004220522062207220822010E121A20EEF4
:100BF00013F0070EDE6AE806FDE209500A100B103A
:100C00000C100D100E100F101010D8B40AEF06F0D3
:100C10000CEF06F05EEF06F0010E116E1AEF06F013
:100C2000D89009360A360B360C360D360E360F368E
:100C30001036112A10AE1FEF06F021EF06F010EF6C
:100C400006F0D89013361436153616361736183681
:100C500019361A360950015C0A5002580B500358D5
:100C60000C5004580D5005580E5006580F50075898
:100C700010500858D8A03FEF06F041EF06F052EFB1
:100C800006F00950015E0A50025A0B50035A0C50EC
:100C9000045A0D50055A0E50065A0F50075A10505C
:100CA000085A1380D89010320F320E320D320C32A7
:100CB0000B320A320932112E21EF06F01250D8B44D
:100CC00064EF06F066EF06F076EF06F01A1E191EC6
:100CD000181E171E161E151E141E136C000E14224D
:100CE000152216221722182219221A2213C001F0E7
:100CF00014C002F015C003F016C004F017C005F0D0
:100D000018C006F019C007F01AC008F01200000E53
:100D1000126E08BE90EF06F08EEF06F0A2EF06F01E
:100D2000081E071E061E051E041E031E021E016C61
:100D3000000E022203220422052206220722082294
:100D4000010E126E10BEA9EF06F0A7EF06F0B9EF84
:100D500006F0101E0F1E0E1E0D1E0C1E0B1E0A1E70
:100D6000096C000E0A220B220C220D220E220F22E9
:100D7000102209500A100B100C100D100E100F103D
:100D80001010D8B4C6EF06F0C8EF06F010EF07F069
:100D9000010E116ED6EF06F0D89009360A360B36E2
:100DA0000C360D360E360F361036112A10AEDBEF2C
:100DB00006F0DDEF06F0CCEF06F00950015C0A50BA
:100DC00002580B5003580C5004580D5005580E5043
:100DD00006580F50075810500858D8A0F2EF06F0E8
:100DE000F4EF06F004EF07F00950015E0A50025AD2
:100DF0000B50035A0C50045A0D50055A0E50065A07
:100E00000F50075A1050085AD89010320F320E3235
:100E10000D320C320B320A320932112EDDEF06F0A0
:100E20001250D8B416EF07F018EF07F028EF07F0CC
:100E3000081E071E061E051E041E031E021E016C50
:100E4000000E022203220422052206220722082283
:100E500001C001F002C002F003C003F004C004F0BE
:100E600005C005F006C006F007C007F008C008F08E
:100E70001200000E0F6E000E0E6E000E0D6E000EB4
:100E80000C6E45EF07F0074A082A07C0F6FF08C0B6
:100E9000F7FF0800F550200AD8B451EF07F053EFE0
:100EA00007F043EF07F007C0F6FF08C0F7FF0800A0
:100EB000F5CF09F0F70E09240A6E0B6AFF0E0B221C
:100EC0000B5009E1050E0A5CD8A069EF07F06BEF43
:100ED00007F043EF07F075EF07F0000E0D6E010EFF
:100EE0000C6E074A082AAAEF07F007C0F6FF08C0F1
:100EF000F7FF0800F550096E0A6A0A50000AD8B4D4
:100F000084EF07F0AAEF07F009502B0AD8B471EF6D
:100F100007F0060AD8B46DEF07F0AAEF07F00EC08D
:100F200001F00FC002F0000E046E0A0E036EE1EC39
:100F30000AF007C0F6FF08C0F7FF0800F550015E91
:100F4000000E025A300E01240E6E000E02200F6EAB
:100F500071EF07F007C0F6FF08C0F7FF0800F5CFF4
:100F600009F0D00E09240A6E0B6AFF0E0B220B50FB
:100F700009E10A0E0A5CD8A0C0EF07F0C2EF07F043
:100F80008FEF07F00C500D10D8A4C9EF07F0CBEF8E
:100F900007F0D9EF07F00EC009F00FC00AF0091EE4
:100FA0000A1E094A0A2A09C007F00AC008F0DDEF44
:100FB00007F00EC007F00FC008F01200046E100E0C
:100FC000016E045005EC0BF0036E033A83500318D6
:100FD000EF0B0318836E200E016E045005EC0BF02E
:100FE000036E033A034683500318DF0B0318836E26
:100FF000400E016E045005EC0BF0036E033A0346FD
:10100000034683500318BF0B0318836E800E016ED6
:10101000045005EC0BF0036E0332033283500318C7
:101020007F0B0318836E84848494420EE82EFED7CF
:1010300000D0010E016E045005EC0BF0036E033A74
:1010400083500318EF0B0318836E020E016E0450D9
:1010500005EC0BF0036E033A034683500318DF0BD5
:101060000318836E040E016E045005EC0BF0036E42
:10107000033A0346034683500318BF0B0318836EDD
:10108000080E016E045005EC0BF0036E03320332C0
:10109000835003187F0B0318836E8484849412009A
:1010A00029EC0BF024EC0BF0C9EC09F081A05BEF0C
:1010B00008F05DEF08F09EEF08F0754A762A020E00
:1010C000076E120E086E060E096E010E79EC09F01D
:1010D000A00E5C6E000E5D6E320E5E6E060E5F6ED2
:1010E00075C060F076C061F018EC0AF0080E076E6B
:1010F000A00E086E000E096E020E79EC09F076BEA5
:101100008BEF08F0765009E10F0E755CD8A08BEFDD
:1011100008F08DEF08F091EF08F0000E766E000EEB
:10112000756E0B0E706E260E6F6E5E0EE82EFED77D
:101130006F2EFCD7702EFAD756EF08F0000E766EA1
:10114000000E756E030E076E220E086E060E096EF7
:10115000010E79EC09F0010E076E010E086E060E05
:10116000096E020E79EC09F0340E6F6EF20EE82E65
:10117000FED76F2EFCD756EF08F000EF00F00350BB
:101180000410D8B4C6EF08F0C8EF08F0D1EF08F0AB
:1011900003500410D8A4CFEF08F0D1EF08F0D6EF39
:1011A00008F001502EEC0BF023EF09F020EE09F0CF
:1011B0000350D9260450DA22DE50DE10D8B4E3EF13
:1011C00008F0E5EF08F000EF09F020EE09F0035019
:1011D000D9260450DA2210EE03F00350E126045021
:1011E000E222DE50E65CE650800A096EDE50800A9C
:1011F0000958D8B0FEEF08F000EF09F023EF09F02E
:1012000020EE03F00350D9260450DA22DECF05F099
:10121000DDCF06F003C0D9FF04C0DAFFDECF07F050
:10122000DDCF08F005500724D96E06500820DA6E8D
:1012300001C0DFFF20EE03F00350D9260450DA226C
:10124000DE2A000EDD22120077A029EF09F02BEF35
:1012500009F035EF09F013C00AF014C00BF011C00B
:101260000CF012C00DF089EC0AF016BE3AEF09F04E
:101270003CEF09F042EF09F015C01AF016C01BF060
:1012800046EF09F0000E1B6E000E1A6E000E196E6E
:10129000000E186E58EF09F0000E026E200E016E5F
:1012A00011C003F012C004F0BFEC08F0184A192A6C
:1012B0001A50185C1950800A176E1B50800A175874
:1012C000D8A065EF09F067EF09F04CEF09F077B0AF
:1012D0006CEF09F06EEF09F078EF09F013C00AF037
:1012E00014C00BF011C00CF012C00DF089EC0AF024
:1012F00012000B6E0B04D8A480EF09F082EF09F006
:1013000087EF09F007507F0F0A6E93EF09F0020E86
:101310000B18D8A48EEF09F090EF09F093EF09F0C5
:101320000750BF0F0A6E0AC005F0000E15EC0BF057
:10133000B0EF09F008C0F6FF09C0F7FFF86A050E24
:10134000F76403D00800F55005D0F6CFE1FFF7CFE2
:10135000E2FFE750056E010E15EC0BF0084A092A72
:1013600008C0F6FF09C0F7FFF86A050EF76403D05E
:101370000800F55005D0F6CFE1FFF7CFE2FFE750C8
:101380000009D8A4C6EF09F0C8EF09F09AEF09F0F8
:101390001200000E956E969496929690000E836EB3
:1013A000849084928494270E056EF50EE82EFED765
:1013B000052EFCD700F0000E066E300EDEEC07F0B6
:1013C0000D0E056EFC0EE82EFED7052EFCD7062A64
:1013D000020E0664EEEF09F0F0EF09F0DDEF09F020
:1013E000020EDEEC07F01A0EE82EFED700D0280E13
:1013F000DEEC07F01A0EE82EFED700D0010EDEEC70
:1014000007F0060E056E300EE82EFED7052EFCD72F
:1014100000D00C0EDEEC07F01A0EE82EFED700D03E
:10142000060EDEEC07F01A0EE82EFED700D01200F2
:10143000600E626E000E636E5CC064F05DC065F0AD
:10144000000E686E000E676E000E6E6E000E6D6E02
:10145000640E546E000E556E5EC056F05FC057F0BD
:10146000620E586E000E596E3FEC0AF067505C2415
:10147000D96E68505D20DA6E000EDF6E120056C025
:101480005AF057C05BF053EF0AF054C03FF055C01C
:1014900040F05A0E416E000E426E58C043F059C0E3
:1014A00044F076EC04F05AC0F6FF5BC0F7FF08008A
:1014B000F5500009D8A45FEF0AF061EF0AF045EF9C
:1014C0000AF0000E556E000E546E1200010E056EED
:1014D000200E01180210D8B470EF0AF072EF0AF073
:1014E00085EF0AF0F70E0124036EFF0E0220046E52
:1014F000045009E1050E035CD8A081EF0AF083EFE8
:101500000AF085EF0AF0000E056E05C001F0026AD0
:101510001200000E106E000E0F6E9AEF0AF00EC051
:1015200001F0026A0CC003F00DC004F0BFEC08F03B
:101530000F4A102A0F500A24D96E10500B20DA6E71
:10154000DF500E6E0E50D8A4A8EF0AF0AAEF0AF0F2
:101550008FEF0AF0120014BEB8EF0AF0145006E143
:101560001304D8B0B6EF0AF0B8EF0AF0C6EF0AF0ED
:1015700013C015F014C016F0151E161E154A162AB3
:1015800015C013F016C014F0CAEF0AF013C013F020
:1015900014C014F01200D00E0124036EFF0E0220BE
:1015A000046E04500AE10A0E035CD8A0DAEF0AF0D8
:1015B000DDEF0AF0010EDEEF0AF0000E016E026AA6
:1015C000120001500302F3CF05F0F4CF06F00150F2
:1015D0000402F350062602500302F350062605C00B
:1015E00001F006C002F0120000EE80F0300EEE6A4C
:1015F000E806FDE100EE71F0070EEE6AE806FDE197
:10160000000EF86E000150EF08F0026E0250011457
:101610000009D8B40EEF0BF010EF0BF013EF0BF046
:10162000010E14EF0BF0000E1200066E06B002D091
:10163000849001D08480420EE82EFED700D084949E
:101640000550DEEC07F01200010E936E0F0EC16E16
:0E1650001200720ED36E000E9B6E120012007E
:020000040020DA
:08000000FFFFFFFFFFFFFFFF00
:020000040030CA
:0E000000FF02191EFF8181FF0FC00FE00F40AD
:00000001FF
