:04000000C6EF17F040
:100600000053454E534F523A2020202020202020D6
:10061000005052455353414F3A20202020202020A3
:100620000025302E3166424152202020202020001B
:1006300025302E326656202020202000696E66006C
:050640006E616E000078
:10064600000E0001A16F56C0A2F057C0A3F058C01B
:10065600A4F059C0A5F0A5BF35EF03F033EF03F0C2
:1006660049EF03F0010EA16FA2C001F0A3C002F092
:10067600A4C003F0A5C004F091EC17F001C0A2F0ED
:1006860002C0A3F003C0A4F004C0A5F0000E000150
:10069600A76F000EA66F6DC095F06EC096F0A151C3
:1006A600D8B458EF03F05AEF03F06EEF03F0A15100
:1006B600D8A460EF03F062EF03F068EF03F0000EDA
:1006C600876F2B0E866F6CEF03F0000E876F2D0E73
:1006D600866F86C0A1F0A2C001F0A3C002F0A4C03C
:1006E60003F0A5C004F033EC13F001040210D8A403
:1006F6007FEF03F081EF03F0B0EF03F00001A151AB
:10070600D8B488EF03F08AEF03F093EF03F0A1C0AB
:1007160000F19507D8A09607000EA76F010EA66FE9
:10072600000EA625016E010EA721026E3C0E036E79
:1007360058EC17F00001FD0E9527FF0E962355C0C5
:100746000FF0000E106E010E116E95C012F096C0DD
:1007560013F06FEC16F04CEF08F0A2C001F0A3C046
:1007660002F0A4C003F0A5C004F033EC13F001506E
:100776000210D8A4C1EF03F0C3EF03F0E1EF03F0DA
:100786000001A151D8B4CAEF03F0CCEF03F0D5EFC6
:1007960003F0A1C000F19507D8A09607000EA76F39
:1007A600010EA66F000EA625016E010EA721026E90
:1007B600400E036E58EC17F09DEF03F0000E00019B
:1007C600A86F000EA96F800EAA6F3F0EAB6F000ECA
:1007D600906F000E8F6FA2C001F0A3C002F0A4C0FC
:1007E60003F0A5C004F0000E056E000E066E000EA6
:1007F600076E000E086EE3EC14F0D8B005EF04F0B7
:1008060007EF04F0E6EF04F014EF04F091C0A8F04F
:1008160092C0A9F093C0AAF094C0ABF000018F4B30
:10082600902BA8C00FF0A9C010F0AAC011F0ABC061
:1008360012F0000E136E000E146E200E156E410E91
:10084600166EADEC0AF00FC091F010C092F011C018
:1008560093F012C094F000019151A25D016E925185
:10086600A359026E9351A459036E9451A559046E6F
:10087600A2EC16F004BE4BEF04F004500310021075
:1008860009E1020E015CD8A04BEF04F04DEF04F035
:1008960009EF04F091C028F092C029F093C02AF025
:1008A60094C02BF0A2C02CF0A3C02DF0A4C02EF053
:1008B600A5C02FF0B1EC12F0D8A064EF04F066EFFB
:1008C60004F009EF04F00001A851A25D016EA951E0
:1008D600A359026EAA51A459036EAB51A559046ED1
:1008E600A2EC16F004BE85EF04F0045003100210CB
:1008F60007E1020E015CD8B083EF04F085EF04F047
:10090600CDEF04F0A8C0A2F0A9C0A3F0AAC0A4F03D
:10091600ABC0A5F0E6EF04F0A8C028F0A9C029F006
:10092600AAC02AF0ABC02BF0000E2C6E000E2D6E66
:10093600200E2E6E410E2F6EC2EC0CF028C0A8F0D1
:1009460029C0A9F02AC0AAF02BC0ABF000018F077E
:10095600D8A09007A851A25D016EA951A359026EB5
:10096600AA51A459036EAB51A559046EA2EC16F018
:1009760004BECBEF04F004500310021007E1020E90
:10098600015CD8B0C9EF04F0CBEF04F0CDEF04F072
:1009960085EF04F0A2C028F0A3C029F0A4C02AF075
:1009A600A5C02BF0A8C02CF0A9C02DF0AAC02EF02F
:1009B600ABC02FF0B1EC12F0D8A0E4EF04F0E6EFF4
:1009C60004F08FEF04F05AC089F089C08AF070BE37
:1009D600EFEF04F0F1EF04F0F7EF04F06FC082F0F0
:1009E60070C083F0FCEF04F0000E0001836F060E6A
:1009F600826F82C08DF083C08EF000018D4B8E2BEE
:100A0600660E8A19D8A40AEF05F00CEF05F02CEF54
:100A160005F090BF13EF05F011EF05F01FEF05F09D
:100A2600000EA86F000EA96F800EAA6F3F0EAB6F67
:100A3600000E906F000E8F6F670E8919D8B426EFDF
:100A460005F028EF05F02CEF05F08F518D2790511A
:100A56008E23000EA06F000E9F6FA2C097F0A3C05A
:100A660098F0A4C099F0A5C09AF0A8C091F0A9C0CA
:100A760092F0AAC093F0ABC094F0BDEF05F097C01A
:100A860028F098C029F099C02AF09AC02BF0A8C087
:100A96002CF0A9C02DF0AAC02EF0ABC02FF0C2ECEE
:100AA6000CF028C041F029C042F02AC043F02BC008
:100AB60044F09CEC0FF041C09BF042C09CF043C058
:100AC6009DF044C09EF09BC001F09CC002F09DC00A
:100AD60003F09EC004F02EEC12F001C08BF002C0B1
:100AE6008CF097C028F098C029F099C02AF09AC0D7
:100AF6002BF09BC013F09CC014F09DC015F09EC057
:100B060016F0A8C00FF0A9C010F0AAC011F0ABC033
:100B160012F0ADEC0AF00FC02CF010C02DF011C091
:100B26002EF012C02FF0F5EC16F028C097F029C071
:100B360098F02AC099F02BC09AF0A8C028F0A9C056
:100B460029F0AAC02AF0ABC02BF0000E2C6E000EC6
:100B56002D6E200E2E6E410E2F6EC2EC0CF028C0AC
:100B6600A8F029C0A9F02AC0AAF02BC0ABF000015A
:100B76009F4BA02B8D519F5DA051800A5B6E8E51BD
:100B8600800A5B58D8A0CAEF05F0CCEF05F042EF1B
:100B960005F0A8C00FF0A9C010F0AAC011F0ABC0B4
:100BA60012F0000E136E000E146EA00E156E400E9F
:100BB600166EADEC0AF00FC09BF010C09CF011C091
:100BC6009DF012C09EF097C028F098C029F099C0F9
:100BD6002AF09AC02BF09BC02CF09CC02DF09DC033
:100BE6002EF09EC02FF0B1EC12F0D8B0FDEF05F05C
:100BF600FFEF05F00AEF06F0000E00019B6F000EF6
:100C06009C6F000E9D6F000E9E6F33EF06F097C02F
:100C160001F098C002F099C003F09AC004F09BC09E
:100C260005F09CC006F09DC007F09EC008F0E3ECFE
:100C360014F0D8A021EF06F023EF06F033EF06F00C
:100C460000018BB129EF06F02BEF06F033EF06F02B
:100C5600000E9B6F000E9C6F000E9D6F000E9E6F28
:100C6600A2C001F0A3C002F0A4C003F0A5C004F026
:100C76009BC005F09CC006F09DC007F09EC008F022
:100C86004DEC08F001C097F002C098F003C099F04F
:100C960004C09AF097C028F098C029F099C02AF0AD
:100CA6009AC02BF0000E136E000E146E200E156EF9
:100CB600410E166E91C00FF092C010F093C011F065
:100CC60094C012F0ADEC0AF00FC02CF010C02DF05D
:100CD60011C02EF012C02FF0B1EC12F0D8A076EFB2
:100CE60006F078EF06F0A1EF06F000018F4B902B8F
:100CF60091C00FF092C010F093C011F094C012F0A2
:100D0600000E136E000E146E200E156E410E166E3A
:100D1600ADEC0AF00FC091F010C092F011C093F044
:100D260012C094F0660E00018A19D8A49DEF06F051
:100D36009FEF06F0A1EF06F08D4B8E2B91C0A8F029
:100D460092C0A9F093C0AAF094C0ABF08FC080F017
:100D560090C081F0000E0001886F000E856F000EB6
:100D6600846F000EA06F000E9F6F9FEF07F097C075
:100D760028F098C029F099C02AF09AC02BF0A8C094
:100D86002CF0A9C02DF0AAC02EF0ABC02FF0C2ECFB
:100D96000CF028C041F029C042F02AC043F02BC015
:100DA60044F09CEC0FF041C09BF042C09CF043C065
:100DB6009DF044C09EF09BC001F09CC002F09DC017
:100DC60003F09EC004F02EEC12F002BEF6EF06F021
:100DD600025007E10A0E015CD8B0F4EF06F0F6EF18
:100DE60006F006EF07F09BC001F09CC002F09DC024
:100DF60003F09EC004F02EEC12F001C08BF002C08E
:100E06008CF00BEF07F0000E00018C6F090E8B6F54
:100E160000018851D8A412EF07F014EF07F03CEF59
:100E260007F081BF1BEF07F019EF07F03CEF07F063
:100E3600000EA625D96E010EA721DA6E2E0EDF6EE4
:100E4600A64BA72B9507D8A09607010E886F3CEFF7
:100E560007F0000EA625D96E010EA721DA6E300E18
:100E6600DF6EA64BA72B9507D8A096078407D8A0B8
:100E7600850784518511D8A443EF07F045EF07F0A5
:100E86002CEF07F0000EA625D96E010EA721DA6E0B
:100E96008B51300FDF6EA64BA72B9507D8A0960770
:100EA60097C028F098C029F099C02AF09AC02BF074
:100EB6009BC013F09CC014F09DC015F09EC016F0A8
:100EC600A8C00FF0A9C010F0AAC011F0ABC012F074
:100ED600ADEC0AF00FC02CF010C02DF011C02EF0B2
:100EE60012C02FF0F5EC16F028C097F029C098F044
:100EF6002AC099F02BC09AF0A8C028F0A9C029F002
:100F0600AAC02AF0ABC02BF0000E2C6E000E2D6E80
:100F1600200E2E6E410E2F6EC2EC0CF028C0A8F0EB
:100F260029C0A9F02AC0AAF02BC0ABF000018007A7
:100F3600D8A081079F4BA02B8D519F5DA051800AA1
:100F46005B6E8E51800A5B58D8B0ACEF07F0AEEFFF
:100F560007F0BCEF07F0A7BFBAEF07F0A75109E10A
:100F66004B0EA65DD8A0BAEF07F0BCEF07F0BAEFBC
:100F760006F0000EA06F4F0E9F6F000E9F25D96ED4
:100F8600010EA021DA6EDF6A000E5B6E010E5C6E4A
:100F9600A6515B5EA7515C5A9F515B24016EA0511E
:100FA6005C20026E000E036E010E046EA6C005F0F4
:100FB600A7C006F0CDEC16F00001A6519F5DA66F06
:100FC600A751A059A76FA151D8A4ECEF07F0EFEFF6
:100FD60007F0010EF0EF07F0000E9F6FA06B71A2F5
:100FE600F7EF07F0F9EF07F027EF08F009EF08F041
:100FF600A607D8A0A707000EA625D96E010EA72121
:10100600DA6E300EDF6E9507D8A0960795519F5D74
:10101600A051800A5B6E9651800A5B58D8B016EFD5
:1010260008F018EF08F027EF08F0A6519F5DA051D1
:10103600800A5B6EA751800A5B58D8A025EF08F09E
:1010460027EF08F0FBEF07F0A151D8B42DEF08F019
:101056002FEF08F03AEF08F0A607D8A0A707000E72
:10106600A625D96E010EA721DA6EA1C0DFFF9F511A
:10107600955FA051965B55C00FF0000EA625106E29
:10108600010EA721116E95C012F096C013F06FECF9
:1010960016F012000450800B0D6E045004240F6EDF
:1010A60003AE58EF08F05AEF08F05BEF08F00F8038
:1010B6000F50D8B461EF08F063EF08F078EF08F04E
:1010C6000F28D8A469EF08F06BEF08F073EF08F06B
:1010D600000E016E000E026E000E036E000E046E10
:1010E600038E000E046E80EF08F0000E016E000EF7
:1010F600026E000E036E000E046E0850800B0E6E1C
:101106000D500E18D8B48AEF08F08CEF08F08DEF6A
:1011160008F00D8C085008240E6E07AE95EF08F007
:1011260097EF08F098EF08F00E800E50D8B49EEFB7
:1011360008F0A0EF08F0B5EF08F00E28D8A4A6EF47
:1011460008F0A8EF08F0B0EF08F0000E056E000EEC
:10115600066E000E076E000E086E078E000E086EF5
:10116600BDEF08F0000E056E000E066E000E076E4F
:10117600000E086E0F500E5CD8B0C4EF08F0C6EF34
:1011860008F0EDEF08F00DACCBEF08F0CDEF08F06E
:10119600CFEF08F0800E0D1A0FC010F00EC00FF042
:1011A60010C00EF001C010F005C001F010C005F02F
:1011B60002C010F006C002F010C006F003C010F026
:1011C60007C003F010C007F004C010F008C004F018
:1011D60010C008F0000E106E0F500EC009F00A6A1B
:1011E600095E000E0A5A0ABE02EF09F00A5009E12A
:1011F6001A0E095CD8A002EF09F004EF09F03BEFE4
:1012060009F00150021003100410D8A40DEF09F0E4
:1012160010EF09F0010E11EF09F0000E106E000E2E
:10122600016E000E026E000E036E000E046E0EC0FE
:101236000FF044EF09F010A023EF09F025EF09F0B5
:101246002BEF09F0D89010300109106E2DEF09F040
:10125600D890103201A032EF09F034EF09F035EFE3
:1012660009F0108E043404320332023201320F2A9E
:101276000E500F5CD8A042EF09F044EF09F01EEFC4
:1012860009F00DBC49EF09F04BEF09F08BEF09F0BF
:101296000F50D8A451EF09F053EF09F05DEF09F0B4
:1012A600000E016E000E026E000E036E000E046E3E
:1012B600ACEF0AF005500126065002220750032221
:1012C6000850042204A06AEF09F06CEF09F018EF49
:1012D6000AF010A071EF09F073EF09F079EF09F049
:1012E600D89010300109106E7BEF09F0D8901032BB
:1012F60001A080EF09F082EF09F083EF09F0108E6C
:10130600043404320332023201320F2A18EF0AF093
:101316000550015C06500258075003580450800AD5
:10132600096E0850800A0958D8B09CEF09F09EEF64
:1013360009F0C9EF09F00150055C096E0250065824
:101346000A6E035007580B6E045008580C6EFF0EB9
:101356000924016EFF0E0A20026EFF0E0B20036E9B
:10136600FF0E0C20046E800E0D1A106C1050D8A4BF
:10137600BFEF09F0C1EF09F0D1EF09F0010E012628
:10138600000E022203220422D1EF09F00550015E6D
:101396000650025A0750035A0850045A01500210C8
:1013A60003100410D8A4DAEF09F0DCEF09F011EF0E
:1013B6000AF01050D8A4E2EF09F0E4EF09F011EFBB
:1013C6000AF0000E016E000E026E000E036E000E95
:1013D600046EACEF0AF0D8900136023603360436B6
:1013E60010AEF8EF09F0FAEF09F0FBEF09F0018013
:1013F60010A000EF0AF002EF0AF006EF0AF0D8801C
:10140600103608EF0AF0D89010360F50D8B40EEF09
:101416000AF010EF0AF011EF0AF00F0603AE16EF0E
:101426000AF018EF0AF0EEEF09F0000E0E6E10AE9D
:101436001FEF0AF021EF0AF039EF0AF010C009F0A9
:101446007F0E0916D8B42AEF0AF02CEF0AF030EF17
:101456000AF0010E0E6E39EF0AF001A035EF0AF020
:1014660037EF0AF039EF0AF02CEF0AF00E50D8B435
:101476003FEF0AF041EF0AF06CEF0AF0010E012689
:10148600000E02220322042204A04CEF0AF04EEFC3
:101496000AF06CEF0AF001C009F002C00AF003C0BE
:1014A6000BF004C00CF00C340C320B320A32093249
:1014B60009C001F00AC002F00BC003F00CC004F032
:1014C6000F28D8B469EF0AF06BEF0AF06CEF0AF058
:1014D6000F2A0F28D8B472EF0AF074EF0AF07CEFE7
:1014E6000AF00F50D8A47AEF0AF07CEF0AF08EEFDC
:1014F6000AF0000E016E000E026E000E036E000E64
:10150600046E0F50D8A48AEF0AF08CEF0AF08EEF23
:101516000AF0000E0D6E0FA093EF0AF095EF0AF099
:1015260098EF0AF0038E99EF0AF0039ED8900F30D9
:10153600046E0DAEA1EF0AF0A3EF0AF0A4EF0AF0D5
:10154600048E01C001F002C002F003C003F004C023
:1015560004F012001250800B1B6E12501224216EE2
:1015660011AEB8EF0AF0BAEF0AF0BBEF0AF021802D
:101576002150D8B4C1EF0AF0C3EF0AF0D6EF0AF053
:101586002128D8A4C9EF0AF0CBEF0AF0D3EF0AF06E
:10159600000E0F6E000E106E000E116E000E126E13
:1015A600118EDEEF0AF0000E0F6E000E106E000EAA
:1015B600116E000E126E1650800B1B1A1650162452
:1015C6001C6E15AEE9EF0AF0EBEF0AF0ECEF0AF04D
:1015D6001C801C50D8B4F2EF0AF0F4EF0AF007EFC3
:1015E6000BF01C28D8A4FAEF0AF0FCEF0AF004EF7F
:1015F6000BF0000E136E000E146E000E156E000E2C
:10160600166E158E0FEF0BF0000E136E000E146E95
:10161600000E156E000E166E1C50D8B415EF0BF0AA
:1016260017EF0BF01FEF0BF02150D8A41DEF0BF0B6
:101636001FEF0BF029EF0BF0000E0F6E000E106E71
:10164600000E116E000E126EC1EF0CF015500F0257
:10165600F3CF26F0F4CF27F026501D6E1E6A1F6AC0
:10166600206A2750226E236A246A256A14501002C3
:10167600F3CF26F0F4CF27F026501D26000E1E22AB
:101686001F22202227502226000E23222422252232
:1016960013501102F3CF26F0F4CF27F026501D2663
:1016A600000E1E221F22202227502226000E232251
:1016B600242225221FC020F01EC01FF01DC01EF0D0
:1016C6001D6A13501002F3CF26F0F4CF27F02650F0
:1016D6001D2627501E22000E1F22000E2022145007
:1016E6000F02F3CF26F0F4CF27F026501D26275001
:1016F6001E22000E1F22000E20221FC020F01EC038
:101706001FF01DC01EF01D6A13500F02F3CF26F006
:10171600F4CF27F026501D2627501E22000E1F222A
:10172600000E202215501002F3CF26F0F4CF27F03A
:101736002650222627502322000E2422000E252280
:1017460014501102F3CF26F0F4CF27F026502226AC
:1017560027502322000E2422000E252215501102A6
:10176600F3CF26F0F4CF27F02650176E2750186EC9
:10177600196A1A6A19C01AF018C019F017C018F0B9
:10178600176A1750222618502322195024221A505D
:1017960025221DC017F01EC018F01FC019F020C06A
:1017A6001AF0190EDCEF0BF0D8901A3219321832F3
:1017B6001732E82ED7EF0BF01750222618502322A7
:1017C600195024221A5025221FC020F01EC01FF0D7
:1017D6001DC01EF01D6A1C5021C017F0186A17267E
:1017E600000E1822820E1724266EFF0E1820276E72
:1017F60012EF0CF0D890223623362436253620AE4A
:1018060007EF0CF009EF0CF00AEF0CF02280D890ED
:101816001D361E361F3620362606D8A0270624AECD
:1018260017EF0CF019EF0CF0FDEF0BF0000E1C6E2D
:1018360020AE20EF0CF022EF0CF046EF0CF0FF0E7E
:101846001D14176EFF0E1E14186EFF0E1F14196E50
:101856007F0E20141A6E1750181019101A10D8B4CB
:1018660037EF0CF039EF0CF03DEF0CF0010E1C6E6B
:1018760046EF0CF022A042EF0CF044EF0CF046EFDE
:101886000CF039EF0CF01C50D8B44CEF0CF04EEFC6
:101896000CF072EF0CF0010E2226000E23222422F9
:1018A600252225A059EF0CF05BEF0CF072EF0CF03F
:1018B60022C017F023C018F024C019F025C01AF072
:1018C6001A341A3219321832173217C022F018C0D9
:1018D60023F019C024F01AC025F0264A272A27BE6D
:1018E6007DEF0CF0275008E12628D8A07DEF0CF0FC
:1018F6007FEF0CF089EF0CF0000E226E000E236EC7
:10190600800E246E7F0E256EB7EF0CF027BE96EF85
:101916000CF0275006E12604D8B094EF0CF096EFB1
:101926000CF0A2EF0CF0000E226E000E236E000EDD
:10193600246E000E256E000E1B6EB7EF0CF026C04F
:1019460021F0FF0E2216FF0E23167F0E2416000E20
:10195600251621A0B1EF0CF0B3EF0CF0B4EF0CF0AC
:10196600248ED8902130256E1B50251222C00FF0F0
:1019760023C010F024C011F025C012F012002B5025
:10198600800B386E2B502B243F6E2AAECDEF0CF019
:10199600CFEF0CF0D0EF0CF03F803F50D8B4D6EF2D
:1019A6000CF0D8EF0CF0EDEF0CF03F28D8A4DEEFEA
:1019B6000CF0E0EF0CF0E8EF0CF0000E286E000ED5
:1019C600296E000E2A6E000E2B6E2A8E000E2B6ECE
:1019D600F5EF0CF0000E286E000E296E000E2A6E32
:1019E600000E2B6E2F50800B381A2F502F24406E6E
:1019F6002EAE00EF0DF002EF0DF003EF0DF040807C
:101A06004050D8B409EF0DF00BEF0DF020EF0DF0BC
:101A16004028D8A411EF0DF013EF0DF01BEF0DF0D9
:101A2600000E2C6E000E2D6E000E2E6E000E2F6E0A
:101A36002E8E000E2F6E28EF0DF0000E2C6E000E6F
:101A46002D6E000E2E6E000E2F6E2C502D102E10A9
:101A56002F10D8A431EF0DF033EF0DF04BEF0DF052
:101A6600000E286E000E296E000E2A6E000E2B6EDA
:101A7600800E2A127F0E2B1238502B1228C028F007
:101A860029C029F02AC02AF02BC02BF08EEF0EF0C9
:101A96003F50D8A451EF0DF053EF0DF05DEF0DF070
:101AA600000E286E000E296E000E2A6E000E2B6E9A
:101AB6008EEF0EF040503FC030F0316A305E000EBF
:101AC600315A7F0E3024396E000E31203A6E28C00E
:101AD60034F029C035F02AC036F02BC037F0000E9E
:101AE600286E000E296E000E2A6E000E2B6E000E5A
:101AF6003B6E000E3C6E000E3D6E000E3E6E000EFE
:101B0600406EBEEF0DF04050D8B48CEF0DF08EEF66
:101B16000DF0A5EF0DF0D89034363536363637361B
:101B2600D890283629362A362B363EAE9DEF0DF054
:101B36009FEF0DF0A0EF0DF02880D8903B363C3695
:101B46003D363E362C50345C2D5035582E50365886
:101B56002F503758D8A0B2EF0DF0B4EF0DF0BDEF0F
:101B66000DF03E8C2C50345E2D50355A2E50365A80
:101B76002F50375A402A190E4064C4EF0DF0C6EFB5
:101B86000DF086EF0DF03450351036103710D8B4FE
:101B9600CFEF0DF0D1EF0DF0E9EF0DF03B80E9EF5F
:101BA6000DF0D890283629362A362B363EAEDEEF93
:101BB6000DF0E0EF0DF0E1EF0DF02880D8903B3608
:101BC6003C363D363E363906D8A03A062AAEEEEF0A
:101BD6000DF0F0EF0DF0D4EF0DF0000E406E3EAEBE
:101BE600F7EF0DF0F9EF0DF01DEF0EF0FF0E3B14C1
:101BF600306EFF0E3C14316EFF0E3D14326E7F0EBA
:101C06003E14336E3050311032103310D8B40EEF0C
:101C16000EF010EF0EF014EF0EF0010E406E1DEFF9
:101C26000EF028A019EF0EF01BEF0EF01DEF0EF0D0
:101C360010EF0EF04050D8B423EF0EF025EF0EF063
:101C460049EF0EF0010E2826000E29222A222B2209
:101C56002BA030EF0EF032EF0EF049EF0EF028C059
:101C660030F029C031F02AC032F02BC033F03334C3
:101C7600333232323132303230C028F031C029F0BE
:101C860032C02AF033C02BF0394A3A2A3ABE54EF12
:101C96000EF03A5008E13928D8A054EF0EF056EF6E
:101CA6000EF061EF0EF0000E3A6E3968000E286EE7
:101CB600000E296E000E2A6E000E2B6E3ABE6EEFD7
:101CC6000EF03A5006E13904D8B06CEF0EF06EEF24
:101CD6000EF07CEF0EF0000E3A6E000E396E000E1E
:101CE600286E000E296E000E2A6E000E2B6E000E58
:101CF600386E39C03FF03FA083EF0EF085EF0EF04F
:101D060088EF0EF02A8E89EF0EF02A9ED8903F308B
:101D16002B6E3FEF0DF012005E50D96EDA6ADFCF00
:101D2600F6FF060EF76E0800F550250AD8A49EEFBA
:101D36000EF0A0EF0EF08AEF0FF05E50D96EDA6A61
:101D4600DF2A000E6E6E000E6D6E6DC071F06F684C
:101D56007068000E656ECAEF0EF071825E50D96E25
:101D6600DA6ADF2ACAEF0EF0010E656ECAEF0EF0D0
:101D76005E50D96EDA6ADFCFF6FF060EF76E080000
:101D8600F550300AD8B4B0EF0EF0B7EF0EF065504C
:101D9600D8B4D0EF0EF0D2EF0EF0BBEF0EF05E50DF
:101DA600D96EDA6ADFCFF6FF060EF76E0800F55039
:101DB6002E0AD8A4E1EF0EF0E3EF0EF0F1EF0EF0ED
:101DC6005E50D96EDA6ADF2A5EC007F05FC008F09F
:101DD60038EC15F007C06FF008C070F05E50D96E91
:101DE600DA6ADF50676E67C0F6FF060EF76E080008
:101DF600F5CF66F00AEF0FF0672A19EF0FF06C0EB9
:101E0600666E19EF0FF0000E666E19EF0FF0665052
:101E16004C0AD8B4FFEF0EF02A0AD8B402EF0FF03E
:101E26000A0AD8B4FFEF0EF006EF0FF067C0F6FF10
:101E3600060EF76E0800F550660AD8A425EF0FF0D7
:101E460027EF0FF084EF0FF051EF0FF05F50D96ED0
:101E5600DA6ADFCF60F0040EDF266050D96EDA6AE8
:101E6600DECF61F0DECF62F0DECF63F0DECF64F06E
:101E76005CEF0FF05F50D96EDA6ADFCF60F0040EC8
:101E8600DF266050D96EDA6ADECF61F0DECF62F00F
:101E9600DECF63F0DECF64F05CEF0FF066504C0AE5
:101EA600D8B43DEF0FF0200AD8B429EF0FF05CEF5D
:101EB6000FF05E50D96EDA6A6728DF6E78EF0FF0A2
:101EC6005DC055F061C056F062C057F063C058F06F
:101ED60064C059F067C0F6FF060EF76E0800F5CF2E
:101EE6005AF023EC03F09BEF0FF067C0F6FF060EE7
:101EF600F76E0800F550660AD8B463EF0FF084EF6A
:101F06000FF05E50D96EDA6ADF2A9BEF0FF05E5053
:101F1600D96EDA6ADFCFF6FF060EF76E0800F550C7
:101F2600016E026A5DC003F08EEC14F084EF0FF0D0
:101F36001200C2C051F0C3C052F0C4C053F0C5C0B5
:101F460054F041C051F042C052F043C053F044C077
:101F560054F0810E456EFF0E466E51C047F052C0DA
:101F660048F053C049F054C04AF0180EC0EF0FF0C5
:101F7600D8904A32493248324732E82EBBEF0FF04A
:101F8600475045244F6E000E4620506E50BED5EF8A
:101F96000FF0505009E1170E4F5CD8A0D5EF0FF0A7
:101FA600D7EF0FF0E1EF0FF041C041F042C042F031
:101FB60043C043F044C044F0A4EF10F050BEE6EF37
:101FC6000FF0E8EF0FF058EF10F04FC045F0FF0E9E
:101FD600466EFF0E476E7F0E486E000E496E4566D2
:101FE600F7EF0FF0FFEF0FF049344932483247322E
:101FF6004632452EF2EF0FF046C04BF047C04CF08C
:1020060048C04DF049C04EF04B505114456E4C50EF
:102016005214466E4D505314476E4E505414486E2B
:102026004550461047104810D8A41CEF10F01EEF7C
:1020360010F020EF10F0D7EF0FF051C045F052C06E
:1020460046F053C047F054C048F0200E30EF10F071
:10205600D8904832473246324532E82E2BEF10F000
:102066004550461047104810D8B43CEF10F03EEFEC
:1020760010F046EF10F04B5051264C5052224D5066
:1020860053224E5054224B1C456E4C1C466E4D1C22
:10209600476E4E1C486E45505116465052164750D4
:1020A6005316485054169CEF10F051C045F052C0DC
:1020B60046F053C047F054C048F0200E68EF10F0C9
:1020C600D8904832473246324532E82E63EF10F058
:1020D6004550461047104810D8A474EF10F076EF1C
:1020E60010F080EF10F0000E516E000E526E000ED2
:1020F600536E000E546E9CEF10F0D8905134456E1E
:102106005234466E5334476E5434486E455046102A
:1021160047104810D8B492EF10F094EF10F09CEFEF
:1021260010F0000E516E000E526E800E536EBF0EF2
:10213600546E51C041F052C042F053C043F054C0F7
:1021460044F01200096E0950D8B4ACEF10F0AEEFAF
:1021560010F0D0EF10F004BEB5EF10F0B3EF10F0B2
:10216600D0EF10F001C005F002C006F003C007F082
:1021760004C008F0051E061E071E081E052A000ECE
:1021860006220722082205C00BF006C00CF007C085
:102196000DF008C00EF0D8EF10F001C00BF002C031
:1021A6000CF003C00DF004C00EF001500210031035
:1021B6000410D8A4E1EF10F0E3EF10F0EDEF10F00B
:1021C600000E016E000E026E000E036E000E046E0F
:1021D6007EEF11F0960E0A6EF7EF10F00A2AD890ED
:1021E6000E320D320C320B32000E0B14056E000E41
:1021F6000C14066E000E0D14076EFE0E0E14086EFD
:102206000550061007100810D8A40CEF11F00EEFB9
:1022160011F0F1EF10F01CEF11F00A2A010E0B2657
:10222600000E0C220D220E22D8900E320D320C32E8
:102236000B32000E0B14056E000E0C14066E000E0B
:102246000D14076EFF0E0E14086E055006100710CB
:102256000810D8A431EF11F033EF11F010EF11F0A0
:102266003BEF11F00A06D8900B360C360D360E36BB
:102276000DBE40EF11F042EF11F04AEF11F0020EE1
:102286000A6048EF11F04AEF11F035EF11F00AB08D
:102296004FEF11F051EF11F052EF11F00D9ED89063
:1022A6000A320AC005F0066A076A086A05C008F01D
:1022B600076A066A056A05500B1206500C1207508B
:1022C6000D1208500E120950D8B46CEF11F06EEFD3
:1022D60011F076EF11F004BE75EF11F073EF11F007
:1022E60076EF11F00E8E0BC001F00CC002F00DC09F
:1022F60003F00EC004F01200000E286E000E296EC8
:10230600820E2A6E410E2B6E69C02CF06AC02DF02B
:102316006BC02EF06CC02FF0B1EC12F0D8A096EF87
:1023260011F098EF11F09EEF11F082808292829464
:1023360082962DEF12F0000E286E000E296E820E88
:102346002A6E410E2B6E69C02CF06AC02DF06BC050
:102356002EF06CC02FF0B1EC12F0D8B0B5EF11F042
:10236600B7EF11F0D6EF11F0000E286E000E296EB1
:10237600020E2A6E420E2B6E69C02CF06AC02DF03A
:102386006BC02EF06CC02FF0B1EC12F0D8A0CEEFDF
:1023960011F0D0EF11F0D6EF11F082808282829494
:1023A60082962DEF12F0000E286E000E296E020E98
:1023B6002A6E420E2B6E69C02CF06AC02DF06BC0DF
:1023C6002EF06CC02FF0B1EC12F0D8B0EDEF11F09A
:1023D600EFEF11F00EEF12F0000E286E000E296ED0
:1023E600430E2A6E420E2B6E69C02CF06AC02DF089
:1023F6006BC02EF06CC02FF0B1EC12F0D8A006EF37
:1024060012F008EF12F00EEF12F0828082828284C0
:1024160082962DEF12F0000E286E000E296E430EE6
:102426002A6E420E2B6E69C02CF06AC02DF06BC06E
:102436002EF06CC02FF0B1EC12F0D8B025EF12F0F0
:1024460027EF12F02DEF12F082808282828482863C
:102456002DEF12F01200033404340A6E0A50D8A489
:1024660037EF12F039EF12F043EF12F0000E016E63
:10247600000E026E000E036E000E046EB0EF12F038
:1024860001C005F002C006F003C007F004C008F062
:10249600200E53EF12F0D89008320732063205327A
:1024A600E82E4EEF12F00550096E038EFF0E011650
:1024B600FF0E0216FF0E0316000E0416960E0A5E97
:1024C6000ABE6AEF12F068EF12F080EF12F00A50BF
:1024D600800A970FD8B072EF12F074EF12F076EF11
:1024E60012F039EF12F0D890043203320232013280
:1024F6000A3E76EF12F098EF12F01F0E0A6486EF8E
:1025060012F088EF12F090EF12F039EF12F0D89037
:1025160001360236033604360A060A50D8A496EF68
:1025260012F098EF12F08AEF12F00950D8B49EEF2D
:1025360012F0A0EF12F0A8EF12F0041E031E021E06
:10254600016C000E02220322042201C001F002C027
:1025560002F003C003F004C004F01200000E2814B9
:10256600306E000E2914316E800E2A14326E7F0EE4
:102576002B14336E3050311032103310D8A4C6EFFE
:1025860012F0C8EF12F0D0EF12F0000E286E000E17
:10259600296E000E2A6E000E2B6E000E2C14306E65
:1025A600000E2D14316E800E2E14326E7F0E2F14F7
:1025B600336E3050311032103310D8A4E5EF12F0DC
:1025C600E7EF12F0EFEF12F0000E2C6E000E2D6EFC
:1025D600000E2E6E000E2F6E2BAEF4EF12F0F6EFFD
:1025E60012F0FFEF12F0286C291ED8B0292A2A1EF5
:1025F600D8B02A2A800E2B562FAE04EF13F006EF22
:1026060013F00FEF13F02C6C2D1ED8B02D2A2E1EB2
:10261600D8B02E2A800E2F56000E281A000E291A20
:10262600000E2A1A800E2B1A000E2C1A000E2D1AD6
:10263600000E2E1A800E2F1A2C50285C2D50295869
:102646002E502A582F502B58D8B02CEF13F02EEFBF
:1026560013F031EF13F0D89032EF13F0D880120058
:10266600C6C00BF0C7C00CF0C8C00DF0C9C00EF054
:1026760001C00BF002C00CF003C00DF004C00EF058
:102686000BC005F00CC006F00DC007F00EC008F038
:10269600180E53EF13F0D89008320732063205327F
:1026A600E82E4EEF13F00550096E0A6A09500A101B
:1026B600D8A460EF13F062EF13F082EF13F0D89016
:1026C6000B34056E0C34066E0D34076E0E34086E30
:1026D6000550061007100810D8A474EF13F076EF13
:1026E60013F07CEF13F0000E026E020E016EB1EFD6
:1026F60013F0000E026E030E016EB1EF13F00928FF
:102706000A10D8A489EF13F08BEF13F0ADEF13F096
:102716000BC005F00CC006F00DC007F00EC008F0A7
:10272600090ED8900536063607360836E82E94EF99
:1027360013F00550061007100810D8B4A5EF13F0D3
:10274600A8EF13F0010EA9EF13F0000E016E026A56
:10275600B1EF13F0000E026E040E016E1200046E4D
:10276600100E016E045004EC18F0036E033A835009
:102776000318EF0B0318836E200E016E045004EC51
:1027860018F0036E033A034683500318DF0B031851
:10279600836E400E016E045004EC18F0036E033A8B
:1027A6000346034683500318BF0B0318836E800E3F
:1027B600016E045004EC18F0036E033203328350AA
:1027C60003187F0B0318836E84848494420EE82ECC
:1027D600FED700D0010E016E045004EC18F0036E13
:1027E600033A83500318EF0B0318836E020E016E33
:1027F600045004EC18F0036E033A034683500318A2
:10280600DF0B0318836E040E016E045004EC18F0FF
:10281600036E033A0346034683500318BF0B03189F
:10282600836E080E016E045004EC18F0036E03323A
:102836000332835003187F0B0318836E84848494B9
:10284600120072C001F073C002F0036A046A000E3F
:10285600A5EC10F001C00FF002C010F003C011F09B
:1028660004C012F00A0E136E280E146EA00E156E1A
:102876003B0E166EADEC0AF00FC0CEF010C0CFF0D6
:1028860011C0D0F012C0D1F0CEC028F0CFC029F0D0
:10289600D0C02AF0D1C02BF0D90E2C6E890E2D6E29
:1028A6009D0E2E6E3D0E2F6EC2EC0CF028C069F008
:1028B60029C06AF02AC06BF02BC06CF0000E136EB4
:1028C600000E146EC80E156E420E166E69C00FF01D
:1028D6006AC010F06BC011F06CC012F0ADEC0AF0DB
:1028E6000FC028F010C029F011C02AF012C02BF03A
:1028F600000E2C6E000E2D6E820E2E6E420E2F6E68
:10290600C2EC0CF028C0CAF029C0CBF02AC0CCF02B
:102916002BC0CDF012000350D8B494EF14F096EF0C
:1029260014F09EEF14F00350D8A49CEF14F09EEF21
:1029360014F0A3EF14F0015034EC18F0E2EF14F0A9
:102946000350D96EDA6A0A0ED926DE50DE10D8B4E4
:10295600AFEF14F0B1EF14F0CAEF14F00350D96ED4
:10296600DA6A0A0ED9260350E16EE26A030EE12600
:10297600DE50E65CE650800A086EDE50800A085893
:10298600D8B0C8EF14F0CAEF14F0E2EF14F0035019
:10299600D96EDA6A030ED926DF50046E0350D96E5B
:1029A600DA6ADF500424D96EDA6A01C0DFFF035009
:1029B600D96EDA6A030ED926DE2A000EDD2212004F
:1029C600000E0114096E000E02140A6E800E031426
:1029D6000B6E7F0E04140C6E09500A100B100C10AF
:1029E600D8A4F8EF14F0FAEF14F002EF15F0000E89
:1029F600016E000E026E000E036E000E046E000ED7
:102A06000514096E000E06140A6E800E07140B6E6E
:102A16007F0E08140C6E09500A100B100C10D8A467
:102A260017EF15F019EF15F021EF15F0000E056EF2
:102A3600000E066E000E076E000E086E0550011899
:102A46000FE1065002180CE10750031809E108507F
:102A56000418D8B431EF15F033EF15F036EF15F052
:102A6600D89037EF15F0D8801200000E0B6E000ECE
:102A76000A6E0750D96EDA6ADFCFF6FF060EF76EDA
:102A86000800F5502A0AD8A44BEF15F04DEF15F0C3
:102A960073EF15F00750D96EDA6ADF2A0850D96E3F
:102AA600DA6A020EDF26DF5CD96EDA6ADECF0AF05A
:102AB600DECF0BF086EF15F00AC001F00BC002F076
:102AC600000E046E0A0E036EF1EC17F00950012495
:102AD6000A6E000E02200B6E0750D96EDA6ADF2AE4
:102AE6000750D96EDA6ADFCFF6FF060EF76E0800DA
:102AF600F550D00F096E090E096484EF15F086EFC4
:102B060015F05FEF15F00AC007F00BC008F01200D1
:102B16000B6E0B04D8A492EF15F094EF15F099EF15
:102B260015F007507F0F0A6EA5EF15F0020E0B1871
:102B3600D8A4A0EF15F0A2EF15F0A5EF15F00750F9
:102B4600BF0F0A6E0AC005F0000E14EC18F0C2EFB3
:102B560015F008C0F6FF09C0F7FFF86A050EF7641E
:102B660003D00800F55005D0F6CFE1FFF7CFE2FF1E
:102B7600E750056E010E14EC18F0084A092A08C041
:102B8600F6FF09C0F7FFF86A050EF76403D00800E0
:102B9600F55005D0F6CFE1FFF7CFE2FFE750000989
:102BA600D8A4D8EF15F0DAEF15F0ACEF15F0120057
:102BB600000E956E969496929690000E836E849073
:102BC60084928494270E056EF50EE82EFED7052E08
:102BD600FCD70000000E066E300EB2EC13F00D0EA0
:102BE600056EFC0EE82EFED7052EFCD7062A020E31
:102BF600066400EF16F002EF16F0EFEF15F0020E86
:102C0600B2EC13F01A0EE82EFED700D0280EB2EC66
:102C160013F01A0EE82EFED700D0010EB2EC13F018
:102C2600060E056E300EE82EFED7052EFCD700D018
:102C36000C0EB2EC13F01A0EE82EFED700D0060EDC
:102C4600B2EC13F01A0EE82EFED700D01200D20E08
:102C56000001AF6F210EB06F69C0B1F06AC0B2F06B
:102C66006BC0B3F06CC0B4F075EC17F0E20E000167
:102C7600AF6F300EB06FCEC0B1F0CFC0B2F0D0C0E3
:102C8600B3F0D1C0B4F075EC17F0010E076E010E6B
:102C9600086E0850D8A4060E096E010E8BEC15F0CE
:102CA600090E076EE20E086E096A010E8BEC15F02E
:102CB600010E076E110E086E0850D8A4060E096E96
:102CC600020E8BEC15F00A0E076ED20E086E096A1C
:102CD600020E8BEC15F0120013BE76EF16F074EFB1
:102CE60016F07AEF16F0000E136E000E126E000E3E
:102CF600166E000E156E8AEF16F0000E026E200E8E
:102D0600016E0FC003F08EEC14F0154A162A12500D
:102D1600155C1650800A146E1350800A1458D8A0F9
:102D260097EF16F099EF16F080EF16F010C009F045
:102D360011C00AF00FC00BF038EC17F0120004BEF9
:102D4600A7EF16F0A9EF16F0B3EF16F001C001F0E9
:102D560002C002F003C003F004C004F0CCEF16F08A
:102D660001C005F002C006F003C007F004C008F079
:102D7600051E061E071E081E052A000E062207222D
:102D8600082205C001F006C002F007C003F008C023
:102D960004F0120003C00AF004C00BF001C008F0F2
:102DA60002C009F0E7EF16F00AC0D9FF0BC0DAFF40
:102DB600DF50076E0A4A0B2A08C0D9FF09C0DAFF9E
:102DC60007C0DFFF084A092A0506D8A00606052817
:102DD60006E10628D8A4F2EF16F0F4EF16F0D7EFC6
:102DE60016F01200000E2C1A000E2D1A000E2E1AC6
:102DF600800E2F1A28C001F029C002F02AC003F065
:102E06002BC004F02CC005F02DC006F02EC007F034
:102E16002FC008F04DEC08F001C028F002C029F0E0
:102E260003C02AF004C02BF01200ADC068F024EFF6
:102E360017F0ACC05DF0680E5E6EAEC05FF08FEC52
:102E46000EF068C0F6FF060EF76E0800F550000992
:102E5600D8A430EF17F032EF17F01CEF17F0000E82
:102E66000001AD6F000EAC6F1200000E0E6E000E6C
:102E76000D6E47EF17F00CC001F0026A0BC003F0AD
:102E86008EEC14F00D4A0E2A0D500924D96E0E5000
:102E96000A20DA6EDF500C6E0C50D8A455EF17F0EE
:102EA60057EF17F03EEF17F0120001C005F002C011
:102EB60006F0032A0304046E04C0F6FF060EF76E3E
:102EC60005C0D9FF06C0DAFF054A062A0800F5CF75
:102ED600DFFFDF50D8A472EF17F074EF17F05CEF46
:102EE60017F01200B10E0001B56FAFC0B6F0000EBC
:102EF600BA6F000EB96F000EC16F000EC06FB60E2E
:102F0600AC6FB0C0ADF0B50EAE6F18EC17F00001A7
:102F1600AF51B925D96EDA6ADF6A12000150021084
:102F260003100410D8B49AEF17F09CEF17F0A4EF33
:102F360017F0000E011A000E021A000E031A800E78
:102F4600041A01C001F002C002F003C003F004C07D
:102F560004F01200820E016EDE0EE82EFED7012E60
:102F6600FCD7C282C2B2BAEF17F0BCEF17F0B5EFCA
:102F760017F0C4CF72F0736A7250016EC350726E4E
:102F860001C073F0120001EE00F0500EEE6AE80682
:102F9600FDE100EEC2F0300EEE6AE806FDE100EE5D
:102FA60069F00B0EEE6AE806FDE1000EF86E000110
:102FB600DDEF17F02FEC18F02AEC18F023EC18F0E0
:102FC600DBEC15F0ADEC17F024EC14F07FEC11F00F
:102FD6002AEC16F0E5EF17F000EF00F001500302BF
:102FE600F3CF05F0F4CF06F001500402F3500626A5
:102FF60002500302F350062605C001F006C002F097
:103006001200026E025001140009D8B40DEF18F038
:103016000FEF18F012EF18F0010E13EF18F0000E74
:103026001200066E06B002D0849001D08480420E53
:10303600E82EFED700D084940550B2EC13F01200AF
:10304600010EC26E0E0EC16E800EC06E1200000E14
:10305600946E000E826E1200000ED36E000E9B6EF2
:043066001200120042
:020000040030CA
:0E000000FF02191EFF8181FF0FC00FE00F40AD
:00000001FF
